:020000041000EA
:1000000000B5324B212058609868022188439860DF
:10001000D860186158612E4B002199600221596106
:100020000121F02299502B49196001219960352056
:1000300000F044F80222904214D00621196600F024
:1000400034F8196E01211966002018661A6600F04E
:100050002CF8196E196E196E052000F02FF8012189
:100060000842F9D1002199601B49196000215960AB
:100070001A491B48016001219960EB211966A021F2
:10008000196600F012F800219960164914480160C1
:100090000121996001BC002800D000471248134993
:1000A000086003C880F30888084703B5996A0420EC
:1000B0000142FBD001200142F8D103BD02B5186610
:1000C0001866FFF7F2FF186E186E02BD00000240BE
:1000D000000000180000070000035F00212200005C
:1000E000F4000018222000A00001001008ED00E03C
:1000F00000000000000000000000000074B24E7A12
:1001000000200420F7010010C3010010C5010010F9
:10011000C1010010C1010010C1010010C101001097
:10012000C1010010C1010010C1010010C701001081
:10013000C1010010C1010010C9010010CB01001065
:10014000CD010010CD010010CD010010CD01001037
:10015000CD010010CD010010CD010010CD01001027
:10016000CD010010CD010010CD010010CD01001017
:10017000CD010010CD010010CD010010CD01001007
:10018000CD010010CD010010CD010010CD010010F7
:10019000CD010010CD010010CD010010CD010010E7
:1001A000CD010010CD010010CD010010CD010010D7
:1001B000CD010010CD010010CD010010CD010010C7
:1001C00000BE00BE00BE00BE00BE00BE00F04BF888
:1001D000103800BEF2EB8871C84C0010F04C0010D3
:1001E0003402001090A31AE700202149086006C8D5
:1001F00081F3088810471F48006800282FD10DA4FC
:100200000ECC002902D000F012F8F9E71A491B4A77
:10021000002000E001C19142FCD1194988471949E9
:1002200088471949884700BEFDE701C901C29A42C3
:10023000FBD37047F04C0010C0000020AC0300203E
:10024000DC4F00100000042000000420DC4F0010F0
:1002500000100420001004200000000070470B482C
:1002600001F0A2FD0047EFF30580C0B27047000027
:1002700008ED00E0000000D0B0030020880D002051
:10028000791800105D03001069190010575600001E
:1002900006005250ABB36053104B00100600525092
:1002A000861C0302204B0010060052505422A29DCF
:1002B000344B001005005250DE65F468DC4F00102E
:1002C000F8B5C0460448054B10B5834203D0044B33
:1002D000002B00D0984710BDAC030020AC030020D9
:1002E0000000000006480749091A8B10C90FC918F9
:1002F00010B5491003D0044B002B00D0984710BD17
:10030000AC030020AC0300200000000010B5074C37
:100310002378002B09D1FFF7D5FF054B002B02D026
:10032000044800E000BF0123237010BDB006002088
:100330000000000000490010054B10B5002B03D051
:100340000449054800E000BFFFF7CCFF10BDC046E0
:1003500000000000B406002000490010F0B5DE46A1
:100360004E4645465746E0B583B004F035FA04F0F2
:1003700025F9444B444D984601239946434E444C3D
:1003800002F09AFF2B68002B19D000F029FF0029FA
:100390004ED0FA220023920001F07AFD33682A68D9
:1003A000C01A90420BD39B1833603A4B187804F074
:1003B0002BFA4A46374B1B785340364A137000F0ED
:1003C0000FFF276800292BD0FA220023920001F0AA
:1003D0005FFDC01B0928D3D93B000A33236004F01A
:1003E0001DFA834602F0D8FE8246002825D05B46DF
:1003F000002B3CD1002003F087FE0028C0D04346EC
:100400001B78002B36D100234246137002F054FFB4
:100410002B68002BB9D100F0E3FE27680029D3D167
:10042000FA21890001F0F2FCC01B0928A8D9D3E702
:10043000FA21890001F0EAFCB0E7002003F064FE35
:1004400000289DD05B46002BD9D0534652460093DE
:100450006B469A8004236A460121137000206B4684
:10046000002203F0B5FE01234246137088E702F034
:100470009BFE85E7002300220121002003F0A8FE57
:10048000C1E7C046810D0020A8020020580D0020C1
:100490005C0D0020830D0020FA22024B92001A60AE
:1004A0007047C046A8020020FA22014B1A6070472C
:1004B000A8020020014B024A1A607047A8020020DF
:1004C000C4090000FA22024B92001A607047C0462D
:1004D000A802002030B50C7889B00134E4B2042CB5
:1004E00001D909B030BD04F099F90500002003F0EE
:1004F0000BFE0028F5D0032C2BD0042C17D0012C98
:100500000CD0022CEDD1002302930193053300227D
:1005100002210093002003F0A1FEE2E7002D44D168
:100520002D4C2378002B4FD100232370D9E70B22C9
:10053000002105A801F074FF002D18D1274C237865
:10054000002BF1D00B23042105AA002003F0F8FDB5
:10055000EAE705AA002D1DD1214C15802378002B38
:10056000E2D002230321002003F0EAFDDCE70124AE
:100570006B469C761B2300226B445A709A70DA708B
:100580001C7004210B23002005AA03F0D9FD134B96
:100590001C70A6E7EA23032113800020E83B03F048
:1005A000CFFD01220E4B1A709BE700236A4605938C
:1005B000138304331375012105AB0022002003F0DF
:1005C00007FE054B1C708CE7002300220121002050
:1005D00003F0FEFDA8E7C046810D0020800D00203D
:1005E0007F0D00200020704710B502A80088022A65
:1005F00000D010BD0129FCD10028FAD01B781A4286
:1006000006D00022064B01201A6004F0FDF8F0E746
:10061000002004F0F9F8FA22014B92001A60E8E792
:10062000A802002000487047484900100048704761
:100630005C490010004870472449001070B500283C
:1006400026D0032831D81A4B8000C658300004F059
:10065000EDF8C0B2011C1F2815D8C9B2002821D05E
:100660000023144DAA1CF05C0133DCB2108002326E
:10067000A142F8D8C0230131C9B249009B001943F7
:100680002800298070BD1F21C9B20028E8D109E0E7
:10069000084D074B02221968A81C01F0C7FEC121B2
:1006A0008900EDE70449034DEAE70020EAE7C04688
:1006B000AC020020E406002002030000094A830087
:1006C00094464022634410B51C68C0006240C024B8
:1006D00014408022520113431C60034B9C4660442B
:1006E000416010BD04C00140004001400123D02200
:1006F0008340120693629361094A83009446402224
:1007000063441968C0004A40C02111408022520150
:1007100013431960034B9C460523604443607047B4
:1007200004C001400040014070B5EFF3108C72B678
:100730000D4D2B68002BFCD0BFF35F8F0724CB0837
:10074000C618C05C01230C40A3401C0004400342B7
:1007500007D103433370BFF35F8F2C608CF3108895
:1007600070BD100001F002F92C0100D0F8B5474629
:10077000CE46884680B5EFF3108C72B6214D2C68BA
:10078000002CFCD0BFF35F8F9A422CD8D4080727E7
:10079000055D061901241740BC402C421FD00721DB
:1007A0000127894609E0D408055D06194C46390041
:1007B0001440A1400C00294211D001329342F2D2E0
:1007C00001204042BFF35F8F00220E4B1A608CF372
:1007D000108800280FDBC0BCB946B046F8BD2C43DA
:1007E00010003470EEE7BFF35F8F00232B608CF3B3
:1007F0001088012040424346002BECD0089801F0BD
:10080000B5F8C0462C0100D0024B18688007C00F15
:100810007047C04600C006400021044B044ABFF3A5
:100820005F8F02C39342FAD17047C046000100D0E7
:10083000800100D0044A1078431CDBB2172B00D98A
:10084000102313707047C046BC02002000B5054B52
:1008500083B00100009318221F230348FFF786FF8F
:1008600003B000BD4C4A0010C4080020012383409F
:10087000002904D0034A1360034A13607047034AF7
:100880001360FBE780E200E000E100E080E100E0CF
:10089000024B10309B688000C058704700ED00E0AC
:1008A00070B50D00EFF3108672B60F4A1368002B77
:1008B000FCD0BFF35F8F0D4B10309B6884001B5939
:1008C0000B4A934203D09D4201D001F067F8074BD9
:1008D0009B681D51BFF35F8FBFF35F8F0022024BF8
:1008E0001A6086F3108870BD240100D000ED00E08E
:1008F000CD010010F0B5DE4657464E464546E0B500
:100900000C0083B0EFF3108A72B65A4A1368002BBA
:10091000FCD0BFF35F8F1022914681444A46564B6C
:1009200096009B689D59554B98469D4205D0A5421F
:1009300016D0534FEB1B2F2B14D94F4B9B689D5157
:10094000BFF35F8FBFF35F8F00224A4B1A608AF3B9
:10095000108803B0F0BCBB46B246A946A046F0BD25
:100960001D00EAE7012383409B465A46454B1B681E
:100970001A4000925A46444B1A60BFF35F8FFFF74C
:1009800072FC0190002803D0814501D001F006F8E7
:1009900001232A009A4393689C4208D15FE04B00F0
:1009A0005B189B00FB189968A14211D01A00062120
:1009B00051560029F3DA009B002B05D05A46334BE1
:1009C0001A60304B1A60B8E75A462F4B1A60B4E7EA
:1009D00006215956002921DB4A00501880003C1896
:1009E0008046A0689860E079D871062020569871FA
:1009F000002824DBA488F81A64052415444400194F
:100A0000E0240005400D2402204398805218204B1A
:100A10009200BF181A781970BA71CCE701990029B1
:100A200010D1FF3191711B49918019490A789A714F
:100A3000194ADB1B5B415A43120D0A70BBE7BD200C
:100A40000002E2E7154A1649D21A083A5002400D50
:100A500001439980134952080A43DA80ABE7062123
:100A6000515613000029B7DA019A002AEAD1454607
:100A7000DBE7C046240100D000ED00E0CD0100100E
:100A8000C002002000E100E080E100E080E200E040
:100A9000820D002000BDFFFFAAAA0000FA0200207C
:100AA00000F0FFFF00F8FFFFF8B501250400054343
:100AB000FFF7D9FBEFF3108C72B6214A1368002BB5
:100AC000FCD0BFF35F8F1F4E2100B7681E4A1F4B3B
:100AD000891A49414B431B0D59B28300F858A8426B
:100AE0001CD00623D3568B421CD01223D3568B42E4
:100AF00022D01E23D3568B4220D02A23D356032044
:100B00008B4210D0124B1A781970A271BFF35F8F0D
:100B100000220B4B1A608CF31088F8BDB2680D48A8
:100B2000D050EFE7002043001B189B00D218FF2392
:100B30009371094B9380E5E70120F4E70220F2E787
:100B4000240100D000ED00E0C0020020AAAA0000AD
:100B5000820D0020CD01001000BDFFFF054B064AAD
:100B60001360064A136053609360D360136153614E
:100B7000936170478080808000E400E004E400E03E
:100B8000024B9C466144890001607047400000347C
:100B900083680B4810B58446614462440901120120
:100BA0009A18591854684B6801209C4201D802D009
:100BB0000020C0B210BD12680B689A42F9D8F7E75E
:100BC000FFFFFF0F0A4B1968EFF3108072B60A6837
:100BD000002AFCD0BFF35F8F1B68BFF35F8F00223A
:100BE0001A6080F3108840BF002000217047C04683
:100BF000540D0020F8B557464E464546DE46E0B552
:100C000099460CAB1C780DAB1B78060090469A46B3
:100C10000768002C11D1BC7B002C42D065003B68DA
:100C20002D19033D59194B78BB73002B00D1FB7371
:100C300000238B704B700B7004E065003B682D192E
:100C4000033D5919B2682A4B94464246E3181B01EA
:100C500063441A604A465A600A9A9A600B9ADA60AC
:100C600000238B704B700B707B7B9B46002B2BD033
:100C700022005946B8687B6898473A68002816D021
:100C80005B4658465B005B445519033BA870D1187E
:100C9000D35C002B00D06B705B460C707B73A3455C
:100CA00013D0F0BCBB46B246A946A046F8BD5B4691
:100CB0005B005B44033BD3189C705119525D002AC2
:100CC00000D05A705B460B707C7342464B46307DB9
:100CD00000F0D6FA051E06D05346002B03D12100A2
:100CE000306800F0EFFC0E9B002BDAD01D70D8E7C7
:100CF000FFFFFF0FF0B5DE464E4657464546002340
:100D0000E0B58DB00A936B4B8200D3580B90994697
:100D100000239B464B46079300F062FA079C0600AF
:100D20000F006268EFF3108572B61368002BFCD0D9
:100D300022000794BFF35F8F2468637B9946002BE2
:100D400067D092685C4B90464B441B0198444346E5
:100D50001A685B6810001900801BB94100295FDD2B
:100D60000B9800F08DFA00230026984600279A463B
:100D7000079C6368BFF35F8F5A461A6085F310883B
:100D80005346002B08D10028C6D10DB0F0BCBB469D
:100D9000B246A946A046F0BD0A9B414618024B4602
:100DA0001843D047089009916268EFF3108572B636
:100DB0001368002BFCD00794BFF35F8F0899099A42
:100DC000002A48DB114303D0079B1B69002B5DD130
:100DD000079B1B68D97B002907D04A005218196865
:100DE0008C4649466244033A51704A46DA734B4690
:100DF000079A013BD168CA5C0132CA545B46079A24
:100E000013615368BFF35F8F5A461A6085F31088E9
:100E100082E700230026984600279A460020A7E78D
:100E2000002901D100289BD10021200000F0CCFB3B
:100E300043461E685F689B68079A9A464346DB688C
:100E40009846D3684B44013B1B780A931B0203432B
:100E5000136100208CE72369002BB9D033003C00DC
:100E60005B1A94411A002300A74219D89F421BD055
:100E7000594604910121039149460291414601914D
:100E8000514607980091FFF7B5FEB7E700F0A8F9C3
:100E9000089A099B06000F0092197B419942E5D9F7
:100EA00001225242D317E3E79642E1D9012252428E
:100EB000D317DDE7400D0020FFFFFF0FF8B55746C1
:100EC0004E464546DE46E0B5404D81468A466A6854
:100ED000EFF3108872B61368002BFCD0BFF35F8F5E
:100EE0002E68B47B002C39D0670033683F19033F6C
:100EF000DB195A78B273002A00D1F273A968344A18
:100F00008C464946A2181201624411605146516054
:100F1000304991600021D160997059701970737BCC
:100F20009B46002B35D022001900B06873689847A3
:100F30003268002820D05B4658465B005B44D719D6
:100F4000033BB870D118D35C002B00D07B705B469C
:100F50000C7073735C451DD0002626E06B68BFF3F0
:100F60005F8F1C6088F3108801204042F0BCBB46B4
:100F7000B246A946A046F8BD5B465B005B44033B16
:100F8000D3189C70D119D25D002A00D05A705B46EC
:100F90000B7074734A465346287D00F071F9061EA3
:100FA000DAD02100286800F08DFBEB681B19013BAB
:100FB00019786B68BFF35F8F00221A6088F310887E
:100FC0000020002ED2D108022043CFE708030020E2
:100FD000FFFFFF0FC50B001010B5124C6368002B0C
:100FE00004D00A211048FFF7CBFD10BD23000F4AA3
:100FF0001021206800F006FA032000F0E5F8032035
:1010000000F0AEF903200A4900F0F4F8FFF712FCF3
:10101000084B9C46032360442375074B80006060A7
:10102000DC60DEE708030020540D0020910B001067
:10103000F50C001040000034400D0020F8B5CE46FD
:10104000474680B506000C00FFF738FF00280CDC8F
:101050002D4B0020596A8C4203D89B6A0130B34261
:1010600045D3C0BCB946B046F8BD20BF274D6A681D
:10107000EFF3108772B61368002BFCD0BFF35F8FBD
:101080002B68C1B29C465B7B8B4235D0FF2303406B
:101090005A00914662461268994490464A46424434
:1010A000033A9278002A1DD0EA68000A9046434429
:1010B000013B1B78C0B2834221D06B68BFF35F8FC6
:1010C00000221A6087F310880F4A0020536A9C425E
:1010D000C7D8926A0130B242C3D2E01A421E904190
:1010E000C0B2BEE72B699842E7D12A61E5E7601AF2
:1010F000431E9841C0B2B4E7FF230340D4E76046E3
:1011000000F0E0FAD9E7C04600400540080300209F
:10111000F0B5D6464F464646C0B5EFF305833F22AD
:10112000134018001038EFF3108C72B6204D2A6867
:10113000002AFCD0BFF35F8F0122110081401D4CBB
:10114000884661631C4917000E788A463100C14009
:101150000F400A4209D1BFF35F8F2F608CF31088D4
:10116000E0BCBA46B146A846F0BD14498200646AA4
:1011700051588C420FD3124BD25843469E4353468C
:101180001E70BFF35F8F00232B608CF31088002A42
:10119000E6D09047E4E70B4A9B00904643441A6828
:1011A0001A60BFF35F8F00232B608CF31088D7E7A2
:1011B000280100D000400540840D0020600D002073
:1011C000B4080020D03F054010B50100024A034892
:1011D000FFF7AAFA10BDC046684A00107E0D002035
:1011E000034B596A0A00986A596A8A42FAD17047D1
:1011F0000040054070B504000D00EFF3108672B694
:101200001A4A1368002BFCD0BFF35F8F002D1BD050
:101210002000FFF73DFB164981420AD02000FFF76E
:101220003FFB01212000FFF721FB0123A340114ACE
:101230001360114BA400E550BFF35F8F00220B4BEE
:101240001A6086F3108870BD0B4BA200D5500122A6
:10125000A2400A4920000B7893430B700449FFF722
:1012600049FB00212000FFF701FBE5E7280100D042
:101270001111001038600540B4080020840D0020D2
:10128000F0B54F46D6464646C0B507002F4C616ABA
:101290000D00A66A616AA942FAD18B4208D805D02E
:1012A0000120E0BCBA46B146A846F0BDB242F7D92B
:1012B000EFF3108A72B6264801680029FCD0BFF30C
:1012C0005F8F0125BD402349204C88460978894617
:1012D0002943C9B28C46414660460870391D1E48F4
:1012E000890065630A51B9000B50216A0020294228
:1012F00019D0616A0800A66A616A8142FAD18B42FC
:1013000019D801D1B24216D8CC451DD00F4B1F20A1
:101310001D625D6301230740BB40104A1E38136005
:1013200043464A461A70BFF35F8F0022084B1A608B
:101330008AF31088B5E70020BFF35F8F0022044BCB
:101340001A608AF31088ACE70120ECE70040054002
:10135000280100D0840D0020600D002080E200E014
:10136000EFF3108C72B60A490B68002BFCD0BFF368
:101370005F8F01238340074A0748136202789A432C
:101380000270BFF35F8F00230B608CF310887047EF
:10139000280100D000400540840D002070B50500F4
:1013A00014001600002915D00C00002A12D0806805
:1013B0006B689847296800280ED073009B1962005B
:1013C000033B1219CB18033A9C7088188A5C002AD8
:1013D00015D10670200070BD63001B197200033B1D
:1013E0009219CB18033A9E7088188A5C002A02D1A1
:1013F00004703400EEE75A7004703400EAE75A7063
:101400000670E7E730B583600023CCB24373013345
:10141000047342608373C4730D000068012C06D905
:10142000421C0133DBB2137003329C42F9D1FF211D
:1014300029404B005918002340180338437030BD31
:10144000F8B5CE46474606000C0080B5002907D007
:101450004D0003686D18033D5A195778002F04D1C9
:101460002000C0BCB946B046F8BD7900C91903399F
:1014700088464344597889460021597051707368F1
:101480003A002100806898473368002814D042460B
:101490009A18947059195B5D002B00D053700F702F
:1014A000270049463000FFF7CBFF3900020030002B
:1014B000FFF774FF0400D3E7424641465D19AF7061
:1014C0009A185B5C002B00D06B701470E9E7C04683
:1014D000F0B557464546DE464E46E0B50D006B007A
:1014E00001685B19DF1E0400C85D83B00192CA1950
:1014F00000284CD043001B18033BCB185E78B44641
:10150000002E16D1019E002E3ED0E67B002E04D088
:1015100073009B19CB18033B5D70E57300282FD136
:101520000023537003B0F0BCBB46B246A946A046A8
:10153000F0BD72006244033A89184A78904600224E
:101540004A7091465A70010032002000FFF726FFD2
:1015500043468246002B07D05B0021684344033B8F
:10156000CB185A78002A16D1424651462000FFF780
:1015700015FF2168019BCA19002BC6D10028CFD0C6
:1015800043001B18033BCB1800219970C8E7019B4F
:10159000002BBAD1C4E750008018033809184878E6
:1015A000834648464870587041462000FFF7F6FED3
:1015B000594680462000FFF743FF414602002000C5
:1015C000FFF7ECFE8046CFE7F0B557464546DE46CE
:1015D0004E46E0B583B00191457B04006B00006886
:1015E0005B19DF1EC15DC21900294ED04B005B188C
:1015F000033BC3185E78B446002E18D1019E002E1E
:1016000040D0E67B002E04D073009B19C318033B27
:101610005D70E573002931D1002328005370617398
:1016200003B0F0BCBB46B246A946A046F0BD72006E
:101630006244033A801842789046002242709146F4
:101640005A7020003200FFF7A9FE43468246002B65
:1016500007D05B0021684344033BCB185A78002A2B
:1016600017D1424651462000FFF798FE019B01002A
:101670002068C219002BC4D10029CDD04B005B18C3
:10168000033BC31800209870C6E7019B002BB8D11C
:10169000C2E7500080180338091848788346484646
:1016A0004870587041462000FFF778FE5946804642
:1016B0002000FFF7C5FE414602002000FFF76EFE46
:1016C0008046CEE770B5040000292CD0437B8B42C6
:1016D0002ED0056848004018033828188278002A60
:1016E00021D053009B18033BEA5CEE188A4202D1DA
:1016F0001BE0002A08D053009B18033BEB185A78D4
:101700008A42F6D142785A700023012283704370D6
:101710002000FFF7DDFE617B02002000FFF73EFEA8
:101720006073012000E0002070BD43783370EBE768
:1017300001221900FFF7CCFE60730120F4E7C046D8
:1017400010B50400FFF776F801002000FFF718FA43
:10175000FF232371BFF35F8F10BDC04610B5040097
:10176000FFF768F801002000FFF70AFAFF23A380C3
:10177000BFF35F8F10BDC04610B504000120FFF716
:1017800065F8044B9C46604480002060BFF35F8F87
:1017900010BDC04640000034F8B5040006200D001E
:1017A00000F060FA002844D02A4B2B49E21853423B
:1017B0005A418023DB039C469205284B62441A6001
:1017C000274B1A6010008B689843FBD1214B802176
:1017D000E3185A425341234A5B00490099520620BC
:1017E00000F040FA2900C00000F010FBC30921D12D
:1017F00040270121260080256162A36200232C3648
:10180000AD0135432B60062000F02CFA3900800032
:1018100000F0FCFA6023E26A53406E221A408023F3
:101820005B0133431A60104B236310232B600D3B85
:10183000A364F8BD0D4A934203D900230C4F0D4910
:10184000D8E77F221040013040089F0119003F185F
:101850000300CFE70080FCBF00C0004000E0004074
:1018600000F00040700D002001030000FEFF0000AA
:10187000C0FF3F00FFFF00002C4B2D4A70B51A60DF
:101880002C4A2D4B2D491A6014008B689C43FBD1C8
:101890002B4D2C4EB54208D2013E761BB60808CD22
:1018A000984723000134B342F9D100F07DF8264A6D
:1018B000214B1A60214A9368DB43DB01DD09002BD1
:1018C000F9D14022214B224C224E9A675A671A675F
:1018D000DA66B44208D223682000002B20D00834F6
:1018E000FFF73CFFB442F6D31B4E1C4CC022A1684C
:1018F000300000F09BFDA660FEF78EFFFFF72EF98B
:10190000FFF76AFB164C174EB44208D2013E361B55
:10191000B60808CC98472B0001359E42F9D170BD1E
:101920000834FFF70DFFB442D5D3DDE700E00040F7
:10193000BFCDFBFEFE7F3C0000F0004000C0004039
:1019400098030020A8030020FFFFFF0100F00140E2
:1019500090030020980300200000002000ED00E02C
:10196000A8030020AC03002000BEFDE70FB400B5C3
:10197000084883B000F090FE049B002B07D005A917
:101980001800019100F0F0F9034800F085FE00BE58
:10199000FDE7C0468C4A00109C4A001010B5014873
:1019A000FFF7E4FFA04A001030B50C2083B000F030
:1019B000B7F9FEF729FF00280ED0944B944A1A601D
:1019C0005A609A60DA601A615A619A61DA611A6241
:1019D000904A5A6203B030BD8F4CA06700F0A8F95E
:1019E00001228E4B1A60636C012BFCD103228C4BBD
:1019F0001A60894A936B012BFCD101330121894A7A
:101A000089480093043300F033F90523874A009393
:101A10000121874800F02CF9864B5A68FF2A02D82A
:101A2000802252005A608022784C7D4B216912013D
:101A3000804D1A60002905D0606900F0E7F9013097
:101A40000138FDD1E0217B4B02201A681140802231
:101A500052012A4311601968484003210140116076
:101A600004219A681142FCD08022802192012A43ED
:101A700009011160802252005A606F4B23616F4B45
:101A80005968FF2900D85A600321644A6B4B1160E2
:101A900002399A681142FCD0E0201A681040802276
:101AA00052011A4310601868484003210140022087
:101AB000116062498A681042FCD08022920113436F
:101AC000802212011A6080225D4B52004A606361DD
:101AD0005C4B5968FF2900D85A6080225A4BE16953
:101AE0001201584D1A60002905D0606900F08EF986
:101AF00001300138FDD1E02252490B681A408023A1
:101B00005B012B431A60802380229B012B4312012F
:101B10001A6080223E4B52004A60E3614B4B596889
:101B2000FF2900D85A608022494B216A1201474D93
:101B30001A60002905D0606900F068F901300138A9
:101B4000FDD1E02241490B681A4080235B012B4301
:101B50001A60802380229B012B4312011A6080238C
:101B600080225B004B602A4BD2022362394B5968BA
:101B7000914200D25A608022374B616A1201354D82
:101B80001A60002905D0606900F040F90130013881
:101B9000FDD1E0222F490B681A4080235B012B43C3
:101BA0001A60802380229B012B4312011A6080233C
:101BB000DB024B60174B6362284B5A68FF2A02D83E
:101BC000802252005A608022254BA1691201234DC8
:101BD0001A60002905D0606900F018F90130013859
:101BE000FDD1E0221D490B681A4080235B012B4385
:101BF0001A60802380229B012B4312011A608023EC
:101C00005B004B600E4BA361E4E6C046C8080020B1
:101C1000006CDC021BB70000008000403CB00040BC
:101C200030B00040002F685900800240008C864789
:101C300000C0024030800040001BB7003C800040E4
:101C4000405973075480004054B000406080004009
:101C500060B000406C8000406CB0004048800040A4
:101C600048B00040014B8000C0587047C8080020B1
:101C7000F0B5C646040000B50C2090461F000E00CB
:101C800000F0C4F84101091A8D01691AC900091848
:101C90008901404600F0BAF8069B3F041A03236806
:101CA0001743002B22DB1A4B1A4DE21853425A41BC
:101CB00080235B019C461203174B62441A60174B4A
:101CC0001A601100AB689943FBD1C022231D920119
:101CD0001A4321232660A06013602368002BFCDADE
:101CE0000823E760136080BCB846F0BD3F2322683C
:101CF0001340B342D7D1A3681B051B0D8342D2D139
:101D0000EE22E368D2021340BB42CCD1EBE7C046DF
:101D10000040FDBF00C0004000E0004000F0004077
:101D20008023024A9B000343D36270470080054032
:101D3000AA23064A1B0113602F230549D360054BD4
:101D400019605368002BFCDA7047C046004002401F
:101D500000B0FA000060024010B5002800D110BDAC
:101D600000F04AFCFBE7C04610B5094A03001468BE
:101D700084B0002C08D0012200910648524203A9E9
:101D8000A047012004B010BD00F086FC0020F9E758
:101D9000380D0020591D001001480421014B18473F
:101DA00030030020C91D0010142310B5010018884D
:101DB00004331B88984710BD162310B501001888FE
:101DC00002331B88984710BDF8B54746CE4680B50C
:101DD0000F1E19D014239946043304000025012650
:101DE00098464B461888434621681B88984701C48B
:101DF000431E9841013540420640AF42F1D13000C8
:101E0000C0BCB946B046F8BD0126F8E7114A936F49
:101E10009B0813D210665166002905D0FFE7FFE743
:101E2000FFE7516F106F704704B5002801D0002004
:101E3000C04302F03DFD002104BDC046F0B5146E64
:101E4000556E576F166FFFF7E5FF146655665767B7
:101E50001667F0BD000000D094464E4A926F92087B
:101E6000624601D230E0C046F0B54A4EB56F6D080B
:101E7000FCD3346E756E776F366F00F025F894469C
:101E8000444A14665566576716676246F0BDC046F9
:101E90009446404A926F9208624601D258E0C0468A
:101EA000F0B53C4EB56F6D08FCD3346E756E776F30
:101EB000366F00F04DF89446364A146655665767FB
:101EC00016676246F0BDC046002B24DB11D0002906
:101ED0003EDA00B5C943404200D1013100F038F884
:101EE000C943404200D10131DB43524200D10133AA
:101EF00000BD002AEBD1002801D1002905D0002027
:101F0000C90FC90701D1C043410800B502F0C8FCA0
:101F10000022002300BD00B500290ADBDB4352424A
:101F200000D1013300F014F8C943404200D101311F
:101F300000BDC943404200D10131DB43524200D1D0
:101F4000013300F005F8DB43524200D1013300BDFC
:101F5000002923D1002B18D1002A0CD0BC460D4FEC
:101F600038667A6600210023FFE7FFE7FFE77A6F14
:101F7000386F67467047002801D00748010000B558
:101F800002F08EFC0022002300BD02000B000020A6
:101F900000217047000000D0FFFFFFFF002B00D0A2
:101FA000BFE0130C28D1002AE7D080B4114F396666
:101FB0007A66FFE7FFE730B4040C7B6F396F1B04D0
:101FC00023433B667A66FFE7FFE7FFE7C04684B23C
:101FD0007B6F3D6F1B0423433B667A66FFE7FFE799
:101FE000C04600232C042D0C7A6F386F001969410C
:101FF000B0BC7047000000D0F0B594460025140E28
:1020000001D112020835140F01D112010435940FC9
:1020100001D192000235D40F01D152000135D40B09
:102020000134254F7C66254C3C660E0C93B2FFE7CD
:10203000FFE7FFE73C6F6643360C7703BE4673430A
:10204000DF0B5B04C01AB941130C7343DB18C91AC8
:10205000CE086643360CB64493B273431F0F1B0180
:10206000C01AB941130C73431F0B1B05C01AB941A9
:10207000860D8F023E436643360C092D24DB520A3F
:102080007243801A7703460A6643360C16235B1B9D
:10209000DE40DF40BF1964466643821B704604354C
:1020A00006330100D940A840C01900D30131A24233
:1020B00006D20023F0BD0000000000D0FFFFFFFFAC
:1020C000121B0130F3D3F1E709277F1BFE40644662
:1020D000A2B27243801A00D20139220C7243130C4F
:1020E0001204821A99410B0070460435133701001F
:1020F000F940A840801900D30131002B02D1A2423F
:102100000AD2F0BD013000D30131121BFAD2013BDB
:10211000F8D1A24200D2F0BD013000D30131121B30
:10212000F7E7F0B51C0C00D080E00CB400251C0AC9
:1021300004D11B02160E3343120208351C0B04D1C6
:102140001B01160F3343120104359C0B04D19B0075
:10215000960F334392000235DC0B02D192185B419B
:1021600001351C00971864410134464F7C66464C8B
:102170003C660E0CFFE7FFE7FFE7C0463C6F664397
:10218000360C7703BE4697B27743C01B00D20139A5
:10219000C01B00D201399FB27743C91BC91B170C62
:1021A00077437E04FF0B801BB941CE086643360C93
:1021B0000C2D33DBB644120B1F053A431B0B97B2B1
:1021C0007743C01B00D201399FB27743C91B170C5C
:1021D00077433E043F0C801BB941860D8F023E437E
:1021E000664329277F1BFE400C3D7746AF40BF1951
:1021F00030BCA2B2ABB272437343801A9941220C35
:102200007243130C1204801A994102000B0001372B
:10221000001BA941F9D2781E0021F0BD0C277F1BBD
:10222000FE4077467F0BAF40FF19E0E700245D1CBE
:1022300007D0144F7D663966FFE7FFE7FFE7FFE74A
:102240003C6F95B29EB265436643401BB141150C8D
:102250001E0C6543664336042F0C3E432D04401B81
:10226000B141994204D202000B0020000021F0BDD0
:1022700001D19042F7D3801A994101349942F2D3A7
:10228000F6E70000000000D0FFFFFFFF132370B54A
:102290001D78012D15D010DD1C48FFF78DFD1C4C5D
:1022A00001008022200000F0C1F8022D06D019485C
:1022B000FFF77AFD184B186070BD154C174BA364DF
:1022C000F5E7164B124C23606360A360E360236163
:1022D0006361A361E36123626362A362E3622363D8
:1022E0006363A363E36323646364A364E3642365B8
:1022F0006365A365E36523666366A366E366236798
:102300006367A367E367A364D1E7C0465344000053
:10231000B00400204C330000500D00202123001099
:1023200007B5604601880A0A0230DF2AFAD1C9B22D
:10233000820804D3028840880004104300E000684B
:10234000014A5050039007BDB0040020514343435D
:10235000C9188C46110C83B24B4310B4040C614372
:1023600092B280B2504362431C041B0C001910BC93
:1023700059411304120CC0185141614470470000C8
:10238000132310B512481C78FFF716FD0100012C2D
:102390000AD003DD80220F4800F048F80E48FFF70E
:1023A00003FD0E4B186010BD0A4C5422200000F0B3
:1023B0003DF80B4B6365A365E36523666366A3661F
:1023C000E36623676367A367E3672362E361E5E787
:1023D00053460000B00500204C330000500D002093
:1023E000E523001007B5604601880A0A0230DF2A9B
:1023F000FAD1C9B2820804D302884088000410438D
:1024000000E00068014A5050039007BDB00500206D
:1024100001480421014B184740030020C91D00104A
:10242000014B1B681847000040030020014B5B680C
:102430001847000040030020030010B508001100F9
:102440001B68984710BDC046F0B546464F46D64675
:10245000C0B5437C80460E001700002B46D0002AF2
:102460003FDD4B1E9946244B0125002400209A464F
:102470000DE04B461B5D0D3B5A425341325DDBB2D2
:102480000A2A0BD02B00013401359F421ADD002CA3
:10249000EFD14346325D1B7C0A2AF3D1002BF1D1E8
:1024A000A04204DA4346211A1B6830189847434675
:1024B00050461B6802219847013428002B00013543
:1024C0009F42E4DC874204DD4346391A1B6830181A
:1024D0009847F619013E33780D3B5A425341424624
:1024E0001374E0BCBA46B146A846F0BD03681100BB
:1024F00030009847F5E7C046704B0010F0B55746DE
:102500004E464546DE461C00D023E0B51B061F683C
:10251000344B83B006000D00180001A991469A467D
:1025200002F0CEF98046002808D1019B7FB29F427D
:1025300004D0504602F0D4F9012398466B1C03D115
:10254000300002F073F90500002C27D1264F274BED
:102550001C68002C18D04B46002B21D1244B9946E7
:1025600002E0E468002C0FD02368002BF9D04B4622
:102570001B68002B01D0A342F3D120002A003100B8
:10258000B847E468002CEFD14346002B25D103B0B7
:10259000F0BCBB46B246A946A046F0BD154FD6E7F3
:1025A000134B99460A239B4602E0E468002CEBD0CB
:1025B0002368002BF9D04B461B68002B01D0A342A7
:1025C000F3D12A0031002000B8475A466B4620005C
:1025D0001A7101A90122B847E7E7504602F058F9FD
:1025E000D5E7C046900300204924001030090020A0
:1025F0003409002039240010F0B5CE46474680B596
:1026000083B06B46DE1CD02330701B061C681F4B4A
:10261000804601A91800994602F052F9071E20D001
:102620001B4B1C68002C28D01A4D02E0E468002CDB
:102630000FD02368002BF9D02B68002B01D0A342C8
:10264000F4D1200001223100FFF7FEFEE468002CE7
:10265000EFD1002F11D1404603B0C0BCB946B046FF
:10266000F0BD019B64B29C420BD0484602F038F9A1
:10267000074B01271C68002CD6D1484602F008F908
:10268000E9E7034B1C68002CCED1E4E7900300205F
:10269000300900203409002070B5040002F0C6F8AB
:1026A00000230100050001222000FFF727FF084B4F
:1026B0001C68002C06D06368002B05D09847E4689E
:1026C000002CF8D1280070BDE468002CF3D1F9E7A4
:1026D000300900200A4A1368002B05D10CE01A00CB
:1026E000DB680C32002B07D09842F8D1002902D1C8
:1026F000C3681360C16070470029FCD01060FAE71E
:1027000030090020F0B50D1E15DD0E4B0D271A689F
:102710000D4B4519D31859424B410C495B005E5E85
:1027200020210478A64207D093691942FCD10130D8
:102730001460A842F5D1F0BD93691942FCD117602D
:10274000F2E7C046780D00200080FCBF700D00202D
:1027500030B504000D1E12DD00201021094B013C94
:102760001A689369194208D1013093691942FCD162
:10277000136823548542F4D130BD0028FCD10320D6
:102780004042F9E7780D002070B51C000A4B150097
:102790001860FFF701F8002D03DB02212800FDF788
:1027A0008DFF002C03DB02212000FDF787FF0121B4
:1027B0000248FFF78FFF70BD780D00205003002006
:1027C000F0B5982357464546DE464E466C4AE0B57E
:1027D000D75880253C006D02883B9A4683B02C4038
:1027E0002F420FD001222321664B00205A54DA7069
:1027F000654901F077FA8022644B92021A65644BB6
:102800002C009A46FB0617D480235B011F4245D15A
:102810008023DB011F4200D088E080231B021F427F
:1028200000D091E0BC4200D0A5E003B0F0BCBB46B4
:10283000B246A946A046F0BD514B9B6D9846002B71
:1028400027D0524B00249B4601239946434601263C
:10285000B8461F0004E001347600E4B2202C17D003
:102860003742F8D05B469E654B466508A3436D0032
:10287000ED18444B6D019C466544280000F092FB26
:1028800000286CD10134B743E4B27600002FE5D1C3
:10289000474680235B0154461F42B9D01C430023A6
:1028A000374A00211360384A3A489360D3603A4A65
:1028B0009360D360394A9360D360394A9360D360A0
:1028C000384A9360D360384A9360D360374A936044
:1028D000D360374A9360D360364A9360D360364AF8
:1028E0009360D360354A9360D360354A9360D36078
:1028F000344A9360D360344A9360D360334A936020
:10290000D360F0229200FFF78BFD314B314A00215A
:102910001A600020012201F0BBF980221B4B120338
:102920001A658023DB011F4200D176E701220421D2
:1029300000201C4301F01CF91022144B1A6580235F
:102940001B021F4200D16DE70122052100201C431C
:1029500001F00EF980220D4B12011A6562E74B4619
:10296000AA8AA97800200093002301F0E3F9280047
:1029700000F054FA86E7210017487940FEF7F6FF89
:102980000000115038090020000010500030115094
:1029900010000100780900200800105010001050AD
:1029A0001800105020001050280010503000105017
:1029B0003800105040001050480010505000105087
:1029C00058001050600010506800105070001050F7
:1029D0003C0D002080011050744B001010B50121F7
:1029E0000520FDF743FF10BD10B50022002102486D
:1029F00000F03CFA10BDC046580900208022024B6E
:102A00005201DA647047C046002011508022024B08
:102A10005202DA647047C04600201150F0B5C64635
:102A200000B5060000F0D4F90C23354D0520AB6746
:102A30003449FDF735FF40239846334C40220021AE
:102A40002000FFF7EDFC43460127A383212100234B
:102A50002E4A6770A260136063545F3161844146FF
:102A6000A187023963542A4A2A496360E260A1625D
:102A70000B60E262284A63629360D360274A2000B9
:102A80009360D360264A00219360D360254A40308A
:102A90009360D360244A9360D360244A9360D360E8
:102AA000234A9360D360234A9360D360224A9360A1
:102AB000D360224A9360D360214A9360D360214A55
:102AC0009360D360204A9360D360204A9360D360C0
:102AD0001F4A9360D360F0229200FFF7A1FC1D4BC8
:102AE0001D4A30001A6080239B052F64EB649023FD
:102AF0001A4AEA50FFF78AFF80BCB846F0BDC046CC
:102B000000001150C1270010380900208400105027
:102B100000011050800010500000105008001050AC
:102B200010001050180010502000105028001050B5
:102B30003000105038001050400010504800105025
:102B40005000105058001050600010506800105095
:102B5000700010503C0D00208001105010D001007A
:102B60000B785B0602D14B78052B00D070478A7832
:102B7000014B1A60FAE7C04600001150F0B5CE468E
:102B80004746072380B548798E780A790340C8788C
:102B90007F21800731401B02F40913434F00820F4D
:102BA000944691462A4D3A195201AA189670012668
:102BB00066405670604600269383D6709077CA00B0
:102BC000012C29D023488446880162448446AC44C1
:102BD000604682601660002929D01F4AC9009046CD
:102BE000414441603F223F3393434A46022A00D189
:102BF0005B001A493F190A687F01D3180B60184B14
:102C0000ED195340EA604A469006184380231B069C
:102C100018436B68186010E01248844688016244CB
:102C20008446AC4460468262166000290AD10023C3
:102C300064012D196B600C4BEB600120C0BCB946E0
:102C4000B046F0BD064AC900904641444162C9E71A
:102C50003809002084001050040010503C0D002062
:102C600000001050800010500001105000231C4A3A
:102C700010B59360D3601B4A00219360D3601A4A59
:102C80001A489360D3601A4A9360D360194A9360DC
:102C9000D360194A9360D360184A9360D360184A8E
:102CA0009360D360174A9360D360174A9360D360F0
:102CB000164A9360D360164A9360D360154A9360B6
:102CC000D360154A9360D360144A9360D360F022B6
:102CD0009200FFF7A5FB124B124A1A6010BDC046C6
:102CE000000010500800105010001050780900200B
:102CF00018001050200010502800105030001050C4
:102D00003800105040001050480010505000105033
:102D100058001050600010506800105070001050A3
:102D20003C0D00208001105010B57F200C00204089
:102D30004000E409110000191A00034B4001C018BB
:102D400000F094F8012010BD380900207F22130004
:102D500010B50B400A420BD0C90980225800401818
:102D60000649400140181201002100F05DF810BD35
:102D700002220348C909521A8266EEE73809002088
:102D8000002011507F22100010B508400A4200D1E7
:102D900010BD0023C909400040180449400108182B
:102DA00000220349C37000F03FF8F1E73809002022
:102DB000FFF7FFFF7F21C309034A9B00014010B5C5
:102DC0009A580248FEF7D2FD64030020884B001099
:102DD00080220D4B520410B51A600C4B0C491A603E
:102DE00010008B689843FBD10A4C9C2200212000E4
:102DF000FFF716FB8022002152010748FFF710FB66
:102E00000923636710BDC04600E0004000F00040A9
:102E100000C0004000001150000010500023037457
:102E2000438283828361704710B58368002901D093
:102E30001C682140002A11D08024E4001143224262
:102E40000CD01A6822420BD1074A0A401A60FFE7E9
:102E5000FFE7FFE7FFE7FFE7FFE78368196010BDC3
:102E60008078FFF7A7FFC046FFFBFFFFF0B5C6461F
:102E7000002300B5838201330374436804001E6895
:102E8000838B81611F1C934200D9171C8025BFB220
:102E9000D21B93B2E278ED0063823D43002A02D058
:102EA0009025AD013D4301204240E2706278002A46
:102EB00051D0002B1DD1A023DB011D43354B1B6CD2
:102EC000354B33408026B6051E436368A2681E60FA
:102ED00013685B055AD4314B2B401360FFE7FFE7C3
:102EE000FFE7FFE7FFE7FFE7A3681D6080BCB84688
:102EF000F0BD802252011543264A126C920703D47A
:102F0000A278D209012ADBD1A28B111C9A4200D9E6
:102F1000191C80278AB2FF009B1A90461743E2785B
:102F20009BB26382002A03D090274146BF010F4322
:102F300001214A40E2706278002A19D0002B02D1A8
:102F40008023DB011F43164B3F043340A026F605C8
:102F50003D431E43B9E73A00E068FFF767FAA3690B
:102F60009C46802367441B021D43A761638AA0E738
:102F7000E0684246A1694030FFF758FAA36943442C
:102F8000A36180231B021F43638AD7E7A078FFF762
:102F900011FFC04600001150FFFFFFAFFFFBFFFF16
:102FA000FFFFFFDFF0B5C64600B5067C0400002E2B
:102FB00000D1D3E083681A681D684378AD05AD0D74
:102FC000002B51D1838AEB189BB28382A18B8D4257
:102FD00007D20023638263681B68300080BCB84658
:102FE000F0BD62681268520002D58D4200D175E0D2
:102FF000638A002BF1D062681F1C16688B4200D9CF
:103000000F1C8025BFB2DB1BE2789BB2ED00638210
:103010003D43002A02D09025AD013D4301214A40A5
:10302000E2706278002A68D0002B2AD1A023DB014D
:103030001D434F4B1B6C4F4B33408026B6051E4340
:103040006368A2681E6013685B0500D58DE04A4B7B
:103050002B401360FFE7FFE7FFE7FFE7FFE7FFE72E
:10306000A36800261D60B8E72A00C1688069FFF7E1
:10307000DDF9A38AA269EB189BB25219A382A2615F
:10308000A4E7802252011543394A126C920703D4F7
:10309000A278D209012ACED1A28B111C9A423FD824
:1030A00080278AB2FF009B1A90461743E2789BB2B2
:1030B0006382002A2FD101214A40E2706278002AFF
:1030C0003ED0002B02D18023DB011F432B4B3F045A
:1030D0003340A026F6053D431E43B1E7A2681568BC
:1030E0006278AD01AD0D002A1CD1EB18A3828D4290
:1030F00000D37DE7002363826FE73A00A169E068AF
:10310000FFF794F9A3699C46802367441B021D4383
:10311000A761638A88E790274146BF010F43CAE74A
:10312000191CBDE7E1682A004031A069FFF77EF96C
:10313000A38AA18BEB18A382A3695B19A361D6E7CD
:10314000E0684246A1694030FFF770F9A369434443
:10315000A36180231B021F43638AB2E77F23817828
:10316000074A08481940FEF701FCA078FFF722FE45
:1031700000001150FFFFFFAFFFFBFFFFFFFFFFDF6E
:1031800064030020A84B0010024B5878431E98415E
:10319000C0B2704798070020024B18784007C00F54
:1031A0007047C04698070020094A10B513785B079E
:1031B000DC0F002B05DA182312781340182B02D0ED
:1031C0000024200010BD0020FFF718FCF9E7C046DE
:1031D00098070020014B18787047C0467D0D0020ED
:1031E000F8B54746CE4680B5294F05003B78002B01
:1031F00004D00120C0BCB946B046F8BD532200211E
:103200002448FFF70DF9244C2000FEF799FA234BD0
:103210001C60234C20001C30FEF7AEFA200001F0A9
:10322000B5FA204B204E1C60204B9846002B04D052
:10323000300000E000BF1E4B186042460024337887
:10324000002A1DD01B4A9046194A91469C4210D331
:103250001BD14346984701343378E4B2A342F5D2F8
:103260002800FFF7DBFB2800FFF7B8FB01233B70CA
:10327000BFE74A46630012681B19DB009B58E9E769
:1032800001F03EF83378002BEAD000231B68FFDE04
:103290007D0D00209807002050070020EC0700203B
:1032A0006C030020F00700207C0D002000000000CF
:1032B000CC06002001430010F0B5DE4657464E46CE
:1032C0004546E0B58BB001F07FF9002800D147E119
:1032D000C44BC54D994607AC2E68F269EFF31081D7
:1032E00072B61368002BFCD0BFF35F8F31623000E1
:1032F000210001F0BFF9F269336ABFF35F8F00214B
:10330000116083F31088002800D129E16378082B2D
:10331000E2D8B64A9B00D3589F466368002BDBD0A7
:10332000A0689847D8E77F222179AE4B0A40560023
:10333000C8099B191B18180001273030C678BE43F6
:10334000C670C6780337BE43C670002A00D10EE1AE
:10335000A74ADB7C002A06D0A64A1278934200D204
:1033600093E19B1ADBB2002B00D0F9E0A24E627908
:103370002078A368B047AFE74B4601221B780121B4
:1033800013434A46137033234846D25C4E468A4361
:10339000C254C25C04208243F2540133F25C2778A9
:1033A0008A43F254F25C8243F254002000F01AFE89
:1033B000602223791A40602A0DD0402A00D1F3E020
:1033C000DB06DB0E012B00D16AE1022B00D123E1E9
:1033D000002B00D1F7E020780021FFF7B7FC802117
:1033E0002078FFF7B3FC77E77E4B1B78DB0700D430
:1033F00072E7824B002B00D16EE7FDF763F86BE7B5
:10340000784B1A78D20700D466E77D4A002A00D1AB
:1034100062E718780007C00FFDF74CF85CE7754EBF
:10342000734A00273378002A00D1B7E0754A9046E6
:10343000BB4209D8BB4200D0B3E00137FFB29F4284
:1034400000D949E7BB42F5D9414609687A008C4664
:10345000D219D20062445269002AEED020789047F7
:1034600001373378FFB29F42E2D935E72378614EC6
:103470005F4A984600273378002A00D186E0624AE6
:103480009246604A9346320046469046BB425ED81A
:1034900000D078E0534630009847434601371B7808
:1034A000FFB2BB42F2D24F4E532200213000FEF752
:1034B000B7FF1022FF21F01CFEF7B2FF30002022E0
:1034C000FF211330FEF7ACFF00F082FD4F4B002BC5
:1034D00000D101E7FCF7E8FFFEE62378454E444AB9
:1034E000984600273378002A47D0474A9246454AF3
:1034F00093463200464690469F421FD343D15346DF
:1035000030009847434601371B78FFB2BB42F3D2E5
:10351000344E532200213000FEF782FF1022FF219B
:10352000F01CFEF77DFF30002022FF211330FEF754
:1035300077FF00F04DFD2379B370CDE65A4612684F
:103540007B009446DB19DB0063445B68D8E75A468E
:1035500012687B009446DB19DB0063445B689AE7E2
:103560000BB0F0BCBB46B246A946A046F0BD62799E
:103570002078A36800F04AFDAEE6404600F0CAFE9F
:103580003378002BC4D000235B68FFDE404600F098
:10359000C1FE3378002B00D185E7F4E7002B00D182
:1035A0009AE600235B69FFDE1948002800D112E784
:1035B00000F018FD0021380008AA00E000BF002834
:1035C00000D089E607E7202A00D19EE0002A00D03B
:1035D00001E76379092B00D9FDE60E4A9B00D35819
:1035E0009F46C04698070020F0070020DC4B0010E3
:1035F000000000007C0D002059450010C50400109B
:10360000B5040010CC06002015430010A9040010DA
:1036100000000000004C00107023217A0B4200D003
:10362000D9E6C80984460F330B405B00F018B54E4D
:103630006044C07C002E06D0B34E3678B04200D233
:1036400084E0801BC0B200287CD1002A70D1AF4E2C
:1036500062799346022290465A4640468243012AA6
:1036600000D1F3E05A46002A00D0B4E64B4463444C
:103670003033DB7806AA9B07DB0F02321380380059
:10368000022308A900F046FC26E65A00D318A04AF7
:10369000DB001268D318002B00D161E71E6966E6D3
:1036A000237A0F2B00D996E6964A4B44DB78002A02
:1036B00005D0954A1278934256D39B1ADBB2002B61
:1036C00000D088E69348914E00F08CFC0021380031
:1036D000F36808AA9847002800D0FDE5602216008C
:1036E00023791E401A4200D075E663790A3B012B0C
:1036F00000D970E600F076FC63790A2B00D1F8E07F
:10370000380008A900F0EEFBE6E5237A0F2B00D97C
:1037100061E67C4A4B44DB78002A06D07A4A12786C
:10372000934200D2B6E09B1ADBB2002B00D052E6E7
:103730007848764E00F056FC00213800F36808AA5D
:1037400098473CE70026002A82D044E6460030181D
:103750006F4EC00036683618002A00D178E7002E78
:1037600000D138E6F068E5E7694A5E00F3181668AC
:10377000DB00F618002E00D12DE6F068A4E7A27950
:10378000029273789A4207D07378002B00D02AE116
:10379000029B002B00D0C3E04B46029A380008A9D8
:1037A0005A7000F09FFB97E5E388012B00D012E6EA
:1037B0000822337893434A461370A1E702203178F8
:1037C00006AB9A1C8B068908DB0F01400B4355E7BB
:1037D000737806AA023213703800012308A900F09A
:1037E00099FB79E5E088030AC0B20F2B00D9F2E516
:1037F00049499A008A58974608A800F0F9FB380012
:10380000A179FFF7F1F8022233781343337063E5AF
:10381000E388012B00D0DEE5082233781343CAE7A2
:10382000022B00D18EE13D4B002B00D1D3E500E00F
:1038300000BF0200002A00D1CDE5D37891781B02A9
:103840000B43380008A900F065FBB8E6E288002ABF
:103850000BD15A464B446344012A34D0302290465F
:1038600098444346DB789B071ED5002E00D133E5F4
:10387000F06800F0B7FBF36808AA00213800984709
:10388000002000F0AFFB34234A46D35CDB0700D5B1
:1038900022E535E71E4A5E00F3181668DB00F618CD
:1038A000002E00D197E55DE73800FFF74FFA434659
:1038B0000222DB7813434246D370D37801221343AC
:1038C0004246D370D1E72F3292469A445346DB7872
:1038D0009B07CAD53800FFF755FA53464246DB78B6
:1038E00093435246D370D3785A4693435246D3708B
:1038F000BBE706AB9A1C3800012308A9167000F03C
:1039000009FBE9E4000000007C0D0020684C001079
:10391000CC060020B5430010284C00100000000029
:10392000581EC0B2FCF786FE002800D153E543784C
:10393000022B00D04FE50121C279BB4693115211F1
:103940000B400A4012015B0113434A4612782F31A3
:103950008A4313434A4613700923984680444746D6
:10396000C37882781B021343C3180493049BBB42A1
:1039700000D8DFE001227B7801920B2B04D1FB7889
:1039800001933B78FF187B78042B00D023E5049B40
:103990006E4ADB1B9BB203936D4B00261B78002AFB
:1039A00014D161E0B34270D16A4B039A3900584692
:1039B00090469847082802D94346834268D2644B10
:1039C00001361B78F6B2B34200D204E5B342E9D91E
:1039D000614B1B680593059A730094469B19DB00A5
:1039E00063449B68E1E73800FFF740F9B378574A32
:1039F000574E9B4600213378002A2ED0564A9046D7
:103A000032000E009246B3421ED800D0BBE5534BA5
:103A100038009847534601361B78F6B2B342F2D2CB
:103A2000532200214846FEF7FBFC4B461022D81CCF
:103A3000FF21FEF7F5FC2022FF214948FEF7F0FCAC
:103A40004B465A469A70A3E6424612687300944663
:103A50009B19DB0063445B68DAE7380000F05AFC2E
:103A60003378002BDCD08EE539005846039A00F0FD
:103A70005BFC80468246082802D9039B98424ED9B7
:103A8000334B1B78002B00D1A5E400239B68FFDE9D
:103A9000019B8246002B0FD0BB78019A9A18D2B2B4
:103AA00004E00133DBB2CE709A4205D04946C91812
:103AB000C878FF28F5D08EE43300390052462848F4
:103AC00000F0C2FD224B57441B78B34200D34DE7B0
:103AD00081E4244B002B00D17DE400E000BF021EF6
:103AE00000D178E43800137808A900F013FA66E5ED
:103AF0002189FCF7A3FD021EF4D16CE4FCF792FDD2
:103B00001223020008A9380000F004FA57E5164B0A
:103B1000002B00D15FE400E000BF02008DE6019BB6
:103B2000002BB9D139004246084B0D4800F08CFDFE
:103B300047441BE70D4B5F46002B00D12CE6FCF7FA
:103B4000ABFC29E6FCF776FD020073E600000000FE
:103B50007C0D002029430010CC06002015430010E6
:103B6000AB070020000000000000000099040010D6
:103B700030B587B005000C000C2200216846FEF726
:103B80004FFC6B461D705C70042C4FD009D8022C82
:103B900034D0032C19D13C4B1A78520758D407B0B3
:103BA00030BD052C11D1384B1A78D207F7D5042136
:103BB0001A788A431A70354B1C68E269EFF310815A
:103BC00072B61368002B09D1FBE7304B1C68E26921
:103BD000EFF3108172B61368002BFCD0BFF35F8F38
:103BE00021626946200000F093FDE269236ABFF379
:103BF0005F8F0021116083F31088D0E70121224BF1
:103C00001A788A431A701A780331A2431A70002274
:103C10005A701A788A431A701C4B1C68E269EFF3D9
:103C2000108172B61368002BD8D1FBE7164B1A78B7
:103C3000D207B4D504211A780A431A70134B1C68B2
:103C4000E269EFF3108172B61368002BC6D1FBE76F
:103C500004211A7803A88A431A7000210C22FEF767
:103C6000DFFB6B466A461D7305235373074B1C68C5
:103C7000E269EFF3108172B61368002BFCD0BFF33A
:103C80005F8F216203A9ADE798070020F0070020AD
:103C900070B584B001AC06000D000C22002120009C
:103CA000FEF7BEFB012363700D4B25711D68267066
:103CB000EA69EFF3108372B611680029FCD0BFF3F4
:103CC0005F8F2B622100280000F022FDEA692B6A39
:103CD000BFF35F8F0021116083F3108804B070BDC3
:103CE000F0070020002330B585B001AD6B8028704F
:103CF0000633082202A86B70FEF798FB0C4B1C6879
:103D0000E269EFF3108372B611680029FCD0BFF3AB
:103D10005F8F23622900200000F0FAFCE269236A29
:103D2000BFF35F8F0021116083F3108805B030BDB1
:103D3000F0070020F0B5C646804600B584B001AC5F
:103D40000F0016000021082220001D00FEF768FB6E
:103D500043462370072363700F4B65711D682771FD
:103D6000A660EA69EFF3108372B611680029FCD0EF
:103D7000BFF35F8F2B622100280000F0C9FCEA69C5
:103D80002B6ABFF35F8F0021116083F3108804B0AA
:103D900080BCB846F0BDC046F0070020F0B54646EE
:103DA000D6464F468046C0B50C0015001E00002ABE
:103DB0002ED070239946184B00279A466378052B1E
:103DC0000FD1E1788907890FB1420AD14A46A37819
:103DD0001A4206D153462000997800F0F9FB0028DA
:103DE00005D10020E0BCBA46B146A846F0BD21008E
:103DF0004046FEF7C3FE0028F3D0A378DA09012A73
:103E000008D0089A137023780137E418AF42D5DB45
:103E10000120E7E7099AF5E79807002070B57F24AD
:103E20000C406300144CC909E41864183034E3787A
:103E3000DB07DD0F002B18D1E3785B0701D52800E5
:103E400070BD01210D4E4942306800F041FDE3781C
:103E5000DB07DD0F002B0AD1E3785B0708D40422CF
:103E6000E37801251343E37002E00025E7E700252E
:103E7000306800F00DFDE2E798070020EC07002015
:103E800070B57F250F4C0D406D0064190600C80900
:103E900024183034E5780020ED0700D570BD0125E9
:103EA000E0782843E0703000FEF73EFF0028F5D1AF
:103EB0000122E3789343E370E37803329343E370A2
:103EC000ECE7C046980700207F22CB090A4004494E
:103ED00052008918C9183031C878C007C00F704720
:103EE0009807002070B50A4E0500300008220C002B
:103EF000FEF79CFA00237F21F3602278B3609142A1
:103F00005B412800D90100220023FFF7B9FF70BDF3
:103F1000D0060020F8B5CE46474691462A4E80B5D9
:103F20000822070030000D009846FEF77FFA4B4646
:103F3000B3600023F381EC79A97924020C43231C9C
:103F4000444500D943469AB29046B381002C13D021
:103F5000002A1FD04B46002B34D0131C402A1FD8F8
:103F60009BB2984633787F2B20D80021174A4346CE
:103F70003800FFF785FF09E07F222B7838009A424E
:103F8000644100230022E101FFF77AFFC0BCB9467B
:103F9000B046F8BD33787F2B11D980210022E6E7A7
:103FA00040239BB2984633787F2BDED9074C42469C
:103FB00049462000FEF73AFA80212200D7E7002187
:103FC0000022D4E70020E1E7D006002058070020B7
:103FD00010B5142200210248FEF722FA10BDC04697
:103FE000D0060020014B18617047C046D006002063
:103FF00010B5054C010008222000FEF717FA002337
:10400000A360E36010BDC046D0060020F8B53B4C6D
:104010001D0023780600DA09C9098A4213D000205E
:10402000002D00D0F8BD364B002B03D0210030000E
:10403000FEF796FD2369002B44D0220002213000B8
:1040400098470120EEE77F2B06D8A068002837D0DC
:104050002A002C49FEF7EAF9A368E2895919521996
:10406000E38892B2E281A160934214D03F2D12D92D
:10407000A589A81A071C80B240282FD82378BFB280
:104080007F2B2DD80021AA4235D01E4A3B0030009C
:10409000FFF7F6FEC6E72369002B05D022000121B9
:1040A0003000984700280FD07F220021237830006D
:1040B0009A42494100230022C901FFF7E1FEB1E71E
:1040C0000020AFE70120ADE700213000FEF73EFE03
:1040D00030008021FEF73AFE0120A3E74027CDE71C
:1040E000AA4207D0074C3A002000FEF79FF9802132
:1040F0002200CBE780210022C8E7C046D00600207E
:10410000612B0010580700202C2343430B4810B5A7
:10411000C0184478FFF738F8002801D1002010BDFE
:10412000FFF73AF80028F9D1002CF7D02100002041
:10413000FFF7CAFE01235840C0B2F0E72407002071
:10414000F8B52C244746CE464443204E80B534195A
:10415000050089460020617890461F00FFF75EFE4B
:1041600000281DD04B46002B1ED03B1C0F2F29D8FA
:104170002C244A466C43DFB23319083434191A72BE
:1041800041463A00601CFEF751F90137FFB22C207E
:1041900045437619220000207178BBB2FFF770FE0C
:1041A000C0BCB946B046F8BD3B1C102F0CD82C241F
:1041B0006C430834DFB234193A0041462000FEF760
:1041C00035F9E4E70F23D3E71023F0E724070020B5
:1041D000F0B54746CE4680B583B06E460F00190055
:1041E0000023327005000622737000292FD0B01C06
:1041F000FEF71CF92C246C43174BA1469846C1448A
:104200004B4600205978FFF709FE00280FD0002FF9
:1042100012D108344444230006CE06C308232C20C0
:1042200045434544220000206978FFF729FE03B08A
:10423000C0BCB946B046F0BD4B46083444441F727A
:1042400008223100601CFEF7F1F80923E7E700219E
:10425000B01CFEF7E5F8CDE724070020F0B557467F
:104260004E464546DE462C2491460022E0B583B0FA
:1042700098460CAB1B7844435BB29B460DAB1B7856
:104280001E4E5BB200930EAB0F009A56311905001B
:104290008A46002049780192FFF7C0FD002816D019
:1042A000002F1BD122004B460832B2181370434630
:1042B00053705B469370009BD370019B1371052371
:1042C0002C204543761900207178FFF7D9FD03B003
:1042D000F0BCBB46B246A946A046F0BD51460F729F
:1042E0004946083432195170414691705946009B35
:1042F000D1701371019B53710623E1E7240700205D
:1043000010B52C2200210248FEF78AF810BDC046E5
:104310002407002010B52C2200210248FEF780F867
:1043200010BDC04624070020F0B54B7906000D00F3
:1043300083B0032B0AD10879C400241A1234A4B222
:10434000944203D81A4F7B78002B03D0002420001E
:1043500003B0F0BD09786918B9624B78212BF5D10B
:104360000B780200C9187B1C0193BB1C0093300022
:104370000323FFF713FD0028E8D0AB79012B13D0FE
:1043800001233B71AB7802223B70BB6AB81DD91D7B
:10439000FEF74CF8B9780029D9D03A001023300044
:1043A0001832FFF76DFDD2E7EB79FB70E8E7C04606
:1043B000240700201F23F0B514001278050083B0F5
:1043C0001340012B17D1604E20793378984212D1D7
:1043D000602318001040134208D020280BD16378C6
:1043E0000B2B08D8594A9B00D3589F46002908D167
:1043F0006378062B07D0002003B0F0BD721D0029A2
:1044000044D00120F8E7E378212B6ED0222BF2D1A3
:104410000020FCF70BF921000200F3882800FFF7C9
:1044200079FD0120E8E7002917D00229E9D1A17818
:10443000474B3171002BE4D0002000E000BF012089
:10444000DAE70029DDD1E178424B7171002B04D00D
:10445000002000E000BF0028CDD021002800FFF799
:1044600041FD0120C8E7002949D1E379A2791B0267
:104470001343102BBFD83200210028001832FFF759
:1044800049FD0120B8E70029BBD1321D01232100DD
:104490002800FFF73FFD0120AEE70029B1D1E37905
:1044A000A0791B020343E278A178181C102B00D9D5
:1044B000102080B2002943D0012B41D933000127BD
:1044C0000138317280B2093300900020FCF78AF87D
:1044D000381883B2002B00D18DE73200210028006C
:1044E0000832FFF717FD012086E7B26A002A00D1E3
:1044F00081E7210028001378FFF70CFD7CE70229F3
:1045000000D07EE7E079A37900021843E278A17831
:10451000041C102800D910243300A4B21833002939
:1045200008D0012806D9307E884203D13300013CEF
:10453000A4B2193300200094FCF756F801205BE781
:10454000330000270833BFE724070020804C001009
:10455000000000000000000070B5164C0500A278B5
:1045600082B08A420FD16178914211D1124A01255D
:10457000002A05D021000020DAB20831FBF7AAFF9B
:10458000280002B070BD627800258A42F8D1EDE7BC
:1045900026009BB218360022002100200093330031
:1045A000FCF722F8280010233200A178FFF768FCFE
:1045B0000500E5E724070020D504001010B5002011
:1045C000FEF70EFE10BDC04610B5FEF703FE10BD8F
:1045D000072210B544790379224012021A43C378A6
:1045E0009B079B0F022B05D0032B15D00020012B1E
:1045F00008D010BD02291CD0002040239342404126
:10460000C0B2F6E702394B4259410D4B9C4661441A
:1046100091424041C0B2ECE702394B425941F0238C
:10462000002049429B001940403191424041C0B2B4
:10463000DFE7044B9C46624453425A41D0B2D8E76C
:10464000FF03000000FEFFFFF0B5002A11D0002498
:104650007F274D78052D06D13D008E7835406D00C1
:10466000F6094519AB550D786419A4B24919A2424F
:10467000EFD8F0BD70B5040080690E00002803D0AB
:104680000121494200F024F9E189228A88B28D1A79
:1046900093B2ADB2914202D26289AD1AADB2A28894
:1046A000AA4207D2904225D261895118411A89B293
:1046B00015002182002D02D122E09B1A9BB29A4262
:1046C000FBD9E288216853433000C918FDF7AEFEDC
:1046D000228A0125531C9BB29A4214D90023628975
:1046E0009B189BB2A0692382002801D000F0D0F86B
:1046F000280070BD811AA58989B28D42D8D2D3E72E
:104700000025238A9BB2A2899A42EBD2E7E7C046F2
:10471000F8B5040040690E00002803D00121494289
:1047200000F0D6F8E289218A95B2531A9BB29142E1
:1047300002D962899B1A9BB2A2889A4221D02B008F
:10474000954203D39B1A9BB29A42FBD9E288216817
:104750005343C8183100FDF769FE6B1C9BB29D42A4
:104760000BD962899B189BB260690127E3810028FD
:1047700001D000F08DF83800F8BDA2899A42F3D23A
:10478000EFE7277A002FDAD1F5E7C04610B504002D
:104790004069002803D00121494200F099F8A0693E
:1047A000002803D00121494200F092F80023E38160
:1047B0002382A38860695B009BB25A1E5B42A28180
:1047C0006381002801D000F063F8A069002801D0BF
:1047D00000F05EF8012010BD10B51920FBF786FF30
:1047E000D0238022E1211B0692045A620448054B23
:1047F0000022186049020123FDF7C6FF10BDC04624
:1048000000400340740D0020D02380221B06920438
:10481000002801D05A6170479A61FCE710B500F09A
:1048200067F801235840C0B210BDC04610B58307D9
:104830000AD00300032102E001330B4205D01A78AD
:10484000002AF9D1181A10BD030019680C4A0D4C42
:104850008A188A4322420FD15968094A04338A18B8
:104860008A43224208D15968054A04338A188A4388
:104870002242F1D000E001331A78002AFBD1E1E7AF
:10488000FFFEFEFE80808080F8B5C046000000007C
:1048900001B40248844601BC604700BFED0100201E
:1048A00001B40248844601BC604700BF7502002085
:1048B00001B40248844601BC604700BF7502002075
:1048C00001B40248844601BC604700BF09010020D2
:1048D00001B40248844601BC604700BF4D0100207E
:1048E00001B40248844601BC604700BFC1000020FB
:1048F00001B40248844601BC604700BF1502002095
:1049000054696E795553420054696E79555342206B
:104910004465766963650000313233343536000012
:104920000904000009022200010100A0320904006C
:1049300000010300000009211101000122EF00071E
:104940000581031000050000120100020000004074
:10495000FECA04400001010203010000050109062E
:10496000A1018501050719E029E715002501950832
:104970007501810295017508810105081901290554
:1049800095057501910295017503910105071900BF
:104990002AFF00150026FF00950675088100C00556
:1049A000010902A10185020901A1000509190129D6
:1049B0000515002501950575018102950175038195
:1049C000010501093009311581257F95027508819E
:1049D0000609381581257F950175088106050C0AA1
:1049E00038021581257F950175088106C0C0050C28
:1049F0000901A1018503150026FF0319002AFF0301
:104A0000950175108100C005010905A10185040506
:104A10000109300931093209350933093415812575
:104A20007F950675088102050109391501250835AC
:104A300000463B01950175088102050919012920ED
:104A400015002501952075018102C0004E6F20736D
:104A500070696E6C6F636B73206172652061766143
:104A6000696C61626C6500004861726477617265AF
:104A700020616C61726D20256420616C72656164D7
:104A80007920636C61696D65640000000A2A2A2A36
:104A90002050414E4943202A2A2A0A000A000000D9
:104AA00048617264206173736572740052656C654D
:104AB00061736500626F6F74325F773235713038C1
:104AC0003000000068747470733A2F2F676974683F
:104AD00075622E636F6D2F72617370626572727989
:104AE00070692F7069636F2D6578616D706C657387
:104AF0002F747265652F484541442F6465765F6861
:104B000069645F636F6D706F7369746500000000A6
:104B1000312E342E300000007069636F00000000F9
:104B20006465765F6869645F636F6D706F736974E5
:104B3000650000004A756C20313720323032320077
:104B400006005250BBFF3CB6184B001006005250F6
:104B50009A235618C44A001006005250E182887FFA
:104B6000B44A001006005250D3F07542AC4A00100F
:104B70000D0A0000556E68616E646C6564204952D0
:104B80005120307825780A0065702025642025732F
:104B90002077617320616C72656164792061766150
:104BA000696C61626C65000043616E277420636FFD
:104BB0006E74696E75652078666572206F6E206907
:104BC0006E616374697665206570202564202573A5
:104BD000000000006F757400696E0000D83200108C
:104BE000DA3400106C3400101E3400100034001051
:104BF000E833001078330010263300101A33001009
:104C0000BC370010A8370010D63300101038001041
:104C1000D6330010F8370010E4370010D6330010F8
:104C2000D03700107E370010D6330010FC3A001049
:104C300020380010F03A0010D6330010D6330010A0
:104C4000D23A001020380010D6330010D6330010AE
:104C5000D6330010D6330010D6330010D6330010F0
:104C6000D63300100E3B0010014300101543001016
:104C700029430010B5430010594500100000000002
:104C8000F64300109A440010FC43001086440010C4
:104C9000F6430010F6430010F6430010F6430010F0
:104CA000F6430010664400104244001026440010F1
:104CB0004C4544000900525000000002B04C001066
:084CC000080052501200000030
:104CC800B4020010A80200109C020010404B001013
:104CD800900200104C4B0010584B0010644B001011
:084CE800B44C0010C04C001098
:104CF000D02330B500251B0600245D5706E003686D
:104D0000BFF35F8F1C6081F3108820BF0268EFF350
:104D1000108172B61368002BFCD0BFF35F8F03794C
:104D20007F2BECD905710368BFF35F8F00221A60F7
:104D300081F3108830BDC04603000068EFF3108C8B
:104D400072B60268002AFCD0BFF35F8F04229A5625
:104D5000002A0BDB00290FD000200A601B68BFF37C
:104D60005F8F00221A608CF310887047D0221206E1
:104D7000126801201A71F1E70020EFE7F0B5C6468E
:104D800000B582B00C00070000F096F8FA2200236C
:104D90000090019120009200002100F095F8009A07
:104DA000019B14001D0024184D41AB422FD82BD07D
:104DB000D0231B061B68002698460BE03B68BFF318
:104DC0005F8F1E6081F310882000290000F06CF8CE
:104DD000002820D13A68EFF3108172B61368002BD7
:104DE000FCD0BFF35F8F3B797F2BE7D943463B7104
:104DF0003B68BFF35F8F00221A6081F310880120A7
:104E000002B080BCB846F0BD009BA342D0D90124BB
:104E10006442E517CCE70020F2E7C0460268EFF3F2
:104E2000108172B61368002BFCD0BFF35F8FFF2395
:104E300003710368BFF35F8F00221A6081F310884B
:104E400040BF704782B0EFF3108172B6134B1A68FF
:104E500080239B015340C02292011340104A1360EB
:104E60000023FA220193019B9200934205DA019BF1
:104E700001330193019B9342F9DBD023C0221B062F
:104E80009868064B92011B681340054A136081F332
:104E900010888007C00F02B07047C0460C800140E8
:104EA0000C9001407047C04601B40248844601BCE2
:104EB000604700BF3D10001001B40248844601BCA9
:104EC000604700BFE111001001B40248844601BCF4
:104ED000604700BF4D230010FA0000002049001079
:104EE0000049001008490010184900101000000087
:104EF00000000000000001000000000000000000B1
:104F0000000002000000000000000000000003009C
:104F100000000000000000000000FF000000000092
:104F200000B5486801318E4600477046093801498E
:104F3000884700BDA90A00102003002000000000DF
:104F4000B0030020F0080020000000000000000076
:104F50000009002000000000000000001000000018
:104F6000503300004C330000543300005233000033
:104F70004D5300004D430000533400004334000003
:104F8000052700100000000051270010000000005D
:104F900000010000D44B0010D84B0010F407002093
:104FA00010000C000000E0FF1F00000000000000E7
:104FB00000000000000000000000000000000000F1
:104FC000000000000000000011240010991D0010D6
:0C4FD0008D220010812300103903001016
:04000005100001E9FD
:00000001FF
