:020000041000EA
:1000000000B5324B212058609868022188439860DF
:10001000D860186158612E4B002199600221596106
:100020000121F02299502B49196001219960352056
:1000300000F044F80222904214D00621196600F024
:1000400034F8196E01211966002018661A6600F04E
:100050002CF8196E196E196E052000F02FF8012189
:100060000842F9D1002199601B49196000215960AB
:100070001A491B48016001219960EB211966A021F2
:10008000196600F012F800219960164914480160C1
:100090000121996001BC002800D000471248134993
:1000A000086003C880F30888084703B5996A0420EC
:1000B0000142FBD001200142F8D103BD02B5186610
:1000C0001866FFF7F2FF186E186E02BD00000240BE
:1000D000000000180000070000035F00212200005C
:1000E000F4000018222000A00001001008ED00E03C
:1000F00000000000000000000000000074B24E7A12
:1001000000200420F7010010C3010010C5010010F9
:10011000C1010010C1010010C1010010C101001097
:10012000C1010010C1010010C1010010C701001081
:10013000C1010010C1010010C9010010CB01001065
:10014000CD010010CD010010CD010010CD01001037
:10015000CD010010CD010010CD010010CD01001027
:10016000CD010010CD010010CD010010CD01001017
:10017000CD010010CD010010CD010010CD01001007
:10018000CD010010CD010010CD010010CD010010F7
:10019000CD010010CD010010CD010010CD010010E7
:1001A000CD010010CD010010CD010010CD010010D7
:1001B000CD010010CD010010CD010010CD010010C7
:1001C00000BE00BE00BE00BE00BE00BE00F04BF888
:1001D000103800BEF2EB8871B44D0010E04D0010F5
:1001E0003402001090A31AE700202149086006C8D5
:1001F00081F3088810471F48006800282FD10DA4FC
:100200000ECC002902D000F012F8F9E71A491B4A77
:10021000002000E001C19142FCD1194988471949E9
:1002200088471949884700BEFDE701C901C29A42C3
:10023000FBD37047E04D0010C000002054030020A5
:1002400074500010000004200000042074500010BE
:1002500000100420001004200000000070470B482C
:1002600001F0E2FD0047EFF30580C0B270470000E7
:1002700008ED00E0000000D058030020300D002001
:10028000F918001055040010E91900105756000025
:1002900006005250ABB36053D04B001006005250D2
:1002A000861C0302C44A0010060052505422A29D2C
:1002B000E04B001005005250DE65F46874500010E9
:1002C000F8B5C0460448054B10B5834203D0044B33
:1002D000002B00D0984710BD540300205403002089
:1002E0000000000006480749091A8B10C90FC918F9
:1002F00010B5491003D0044B002B00D0984710BD17
:1003000054030020540300200000000010B5074CE7
:100310002378002B09D1FFF7D5FF054B002B02D026
:10032000044800E000BF0123237010BD58060020E0
:1003300000000000A84A0010054B10B5002B03D0A8
:100340000449054800E000BFFFF7CCFF10BDC046E0
:10035000000000005C060020A84A00107047C0465C
:10036000F0B5C646344BD02700259846012600B587
:100370003F0686B043465C5D0135200001F02EFA51
:100380000521200001F0FAF93300A34000220121E9
:100390002000BB6201F00AFA032DEBD1274928485F
:1003A00002F0C8FA062105001A2001F0E7F9002141
:1003B00001231A222248009602F020FB80235B02D0
:1003C0000293EB1CEA011B0313431E4A0520134052
:1003D00003931D4B05931D4B049301F083FC02F026
:1003E00033F81B4902F015F8061C02F055F884B2E8
:1003F0000023002C0ED0200002F026F8011C301C37
:1004000002F001F88721C90502F017F802F044F85C
:10041000C3B21B0224041C430294094C2A0002AB01
:100420000021200002F02CFB0122236813432360EB
:1004300006B080BCB846F0BDA84A0010AC4A001017
:1004400000002050FFFFFF9F0068002000000670A2
:100450000024F44AF0B5D02683B004F0ADFA04F0DD
:100460009DF9FFF77DFF02F0DFF9354800F006F94E
:10047000344D360603F0AAF800F00EFD2C68002972
:100480002DD0FA220023920001F042FD8442F1D0E7
:10049000013400202C6003F0C1FF041EEAD0736811
:1004A0001B01DA0F002B3EDA002401273A007368A3
:1004B0001B0F1A401F4219D073685B0F1F4225D0D3
:1004C000002CD7D1002300220121002003F0C2FF1D
:1004D00003F07CF800F0E0FC2C680029D1D1FA216F
:1004E000890001F0D3FCA042D2D1C3E76B46009251
:1004F0009A801B236A460121137000206B4600225C
:1005000003F0A8FF73685B0F1F42B3D16A46002354
:10051000009393800633137001216B460022002064
:1005200003F098FFA6E76B4600929A806A461D2367
:100530000121137000206B46002203F08BFFB4E70B
:100540005D030010080D0020002070477047C04672
:1005500000487047004B001000487047144B0010D3
:1005600000487047DC4A001070B5002826D00328E8
:1005700031D81A4B8000C658300004F035FAC0B2AA
:10058000011C1F2815D8C9B2002821D00023144D02
:10059000AA1CF05C0133DCB210800232A142F8D810
:1005A000C0230131C9B249009B00194328002980AA
:1005B00070BD1F21C9B20028E8D109E0084D074BE2
:1005C00002221968A81C01F0C3FFC1218900EDE7D0
:1005D0000449034DEAE70020EAE7C046480200204C
:1005E0008C0600200203000003BDC04610B50400C5
:1005F00001F0B2F8A04710BDF0B5040087B00F209D
:100600000E00170000F036FF002105000F2000F05B
:100610001FFF002300220092019301230293D023A5
:1006200004960594002600240121022003971B064E
:10063000002C14D01A6D1042FCD05C6540BF1A6DBE
:10064000114203D120BF1A6D1142FBD09A6DA24214
:100650000AD000266C46B200A458E9E79A6D1A6DDC
:100660001142FBD140BFE5E70136052EF2D9290042
:100670000F2000F0EDFE07B0F0BDC0460B4B0C4A5A
:1006800010B5934201D201235B421900094A9850E8
:1006900004329B50084A094B0948CA50094B9A68D2
:1006A000044B9C466144FFF7A7FF10BD00080420DF
:1006B00000000420F4070000ED050010FC07000016
:1006C000E905001000ED00E0024B9C466144890002
:1006D00001607047400000340021044B044ABFF31E
:1006E0005F8F02C39342FAD17047C046000100D029
:1006F000800100D0044A1078431CDBB2172B00D9CC
:10070000102313707047C0465802002000B5054BF7
:1007100083B00100009318221F23034800F03EF825
:1007200003B000BD584B001074080020EFF3108098
:1007300072B6034A1368002BFCD0BFF35F8F70477B
:100740002C0100D0BFF35F8F0022024B1A6080F3B0
:10075000108870472C0100D070B5EFF3108C72B682
:100760000D4D2B68002BFCD0BFF35F8F0724CB0807
:10077000C618C05C01230C40A3401C000440034287
:1007800007D103433370BFF35F8F2C608CF3108865
:1007900070BD100001F02AF92C0100D0F8B54746D1
:1007A000CE46884680B5EFF3108C72B6214D2C688A
:1007B000002CFCD0BFF35F8F9A422CD8D4080727B7
:1007C000055D061901241740BC402C421FD00721AB
:1007D0000127894609E0D408055D06194C46390011
:1007E0001440A1400C00294211D001329342F2D2B0
:1007F00001204042BFF35F8F00220E4B1A608CF342
:10080000108800280FDBC0BCB946B046F8BD2C43A9
:1008100010003470EEE7BFF35F8F00232B608CF382
:100820001088012040424346002BECD0089801F08C
:10083000DDF8C0462C0100D0024B18688007C00FBD
:100840007047C04600C0064083680B4810B5844618
:1008500061446244090112019A18591854684B689E
:1008600001209C4201D802D00020C0B210BD126805
:100870000B689A42F9D8F7E7FFFFFF0F0A4B196898
:10088000EFF3108072B60A68002AFCD0BFF35F8FC6
:100890001B68BFF35F8F00221A6080F3108840BF8F
:1008A000002000217047C046040D0020F8B55746CF
:1008B0004E464546DE46E0B599460CAB1C780DAB7E
:1008C0001B78060090469A460768002C11D1BC7B25
:1008D000002C42D065003B682D19033D59194B7817
:1008E000BB73002B00D1FB7300238B704B700B701C
:1008F00004E065003B682D19033D5919B2682A4B85
:1009000094464246E3181B0163441A604A465A6003
:100910000A9A9A600B9ADA6000238B704B700B7006
:100920007B7B9B46002B2BD022005946B8687B6806
:1009300098473A68002816D05B4658465B005B44EF
:100940005519033BA870D118D35C002B00D06B70F5
:100950005B460C707B73A34513D0F0BCBB46B2461C
:10096000A946A046F8BD5B465B005B44033BD31839
:100970009C705119525D002A00D05A705B460B7072
:100980007C7342464B46307D00F0D6FA051E06D0F9
:100990005346002B03D12100306800F0EFFC0E9B82
:1009A000002BDAD01D70D8E7FFFFFF0FF0B5DE4651
:1009B0004E46574645460023E0B58DB00A936B4B33
:1009C0008200D3580B90994600239B464B460793D1
:1009D00000F062FA079C06000F006268EFF31085D2
:1009E00072B61368002BFCD022000794BFF35F8F10
:1009F0002468637B9946002B67D092685C4B9046D5
:100A00004B441B01984443461A685B681000190068
:100A1000801BB94100295FDD0B9800F08DFA00239F
:100A20000026984600279A46079C6368BFF35F8FAD
:100A30005A461A6085F310885346002B08D10028C7
:100A4000C6D10DB0F0BCBB46B246A946A046F0BD2B
:100A50000A9B414618024B461843D047089009911B
:100A60006268EFF3108572B61368002BFCD0079410
:100A7000BFF35F8F0899099A002A48DB114303D01E
:100A8000079B1B69002B5DD1079B1B68D97B002945
:100A900007D04A00521819688C4649466244033A06
:100AA00051704A46DA734B46079A013BD168CA5CDB
:100AB0000132CA545B46079A13615368BFF35F8FD4
:100AC0005A461A6085F3108882E70023002698466C
:100AD00000279A460020A7E7002901D100289BD1D2
:100AE0000021200000F0CCFB43461E685F689B6835
:100AF000079A9A464346DB689846D3684B44013BC5
:100B00001B780A931B020343136100208CE72369BF
:100B1000002BB9D033003C005B1A94411A0023002B
:100B2000A74219D89F421BD0594604910121039135
:100B30004946029141460191514607980091FFF7BD
:100B4000B5FEB7E700F0A8F9089A099B06000F0068
:100B500092197B419942E5D901225242D317E3E72A
:100B60009642E1D901225242D317DDE7F00C002072
:100B7000FFFFFF0FF8B557464E464546DE46E0B547
:100B8000404D81468A466A68EFF3108872B6136852
:100B9000002BFCD0BFF35F8F2E68B47B002C39D0C4
:100BA000670033683F19033FDB195A78B273002A94
:100BB00000D1F273A968344A8C464946A218120142
:100BC0006244116051465160304991600021D1600A
:100BD000997059701970737B9B46002B35D0220099
:100BE0001900B068736898473268002820D05B46C7
:100BF00058465B005B44D719033BB870D118D35CEF
:100C0000002B00D07B705B460C7073735C451DD06D
:100C1000002626E06B68BFF35F8F1C6088F31088A6
:100C200001204042F0BCBB46B246A946A046F8BDF2
:100C30005B465B005B44033BD3189C70D119D25DCB
:100C4000002A00D05A705B460B7074734A465346B4
:100C5000287D00F071F9061EDAD02100286800F026
:100C60008DFBEB681B19013B19786B68BFF35F8F35
:100C700000221A6088F310880020002ED2D10802CA
:100C80002043CFE75C020020FFFFFF0F7D0800102C
:100C900010B5124C6368002B04D00A211048FFF7EE
:100CA00013FD10BD23000F4A1021206800F006FA42
:100CB000032000F0E5F8032000F0AEF903200A4914
:100CC00000F0F4F8FFF716FD084B9C460323604440
:100CD0002375074B80006060DC60DEE75C0200206B
:100CE000040D002049080010AD0900104000003438
:100CF000F00C0020F8B5CE46474680B506000C0043
:100D0000FFF738FF00280CDC2D4B0020596A8C427D
:100D100003D89B6A0130B34245D3C0BCB946B04644
:100D2000F8BD20BF274D6A68EFF3108772B61368CD
:100D3000002BFCD0BFF35F8F2B68C1B29C465B7B5E
:100D40008B4235D0FF2303405A0091466246126819
:100D5000994490464A464244033A9278002A1DD06C
:100D6000EA68000A90464344013B1B78C0B28342C4
:100D700021D06B68BFF35F8F00221A6087F3108861
:100D80000F4A0020536A9C42C7D8926A0130B2428F
:100D9000C3D2E01A421E9041C0B2BEE72B6998420E
:100DA000E7D12A61E5E7601A431E9841C0B2B4E773
:100DB000FF230340D4E7604600F0E0FAD9E7C046DD
:100DC000004005405C020020F0B5D6464F4646463E
:100DD000C0B5EFF305833F22134018001038EFF33E
:100DE000108C72B6204D2A68002AFCD0BFF35F8FAA
:100DF0000122110081401D4C884661631C49170087
:100E00000E788A463100C1400F400A4209D1BFF333
:100E10005F8F2F608CF31088E0BCBA46B146A846BD
:100E2000F0BD14498200646A51588C420FD3124BB2
:100E3000D25843469E4353461E70BFF35F8F002334
:100E40002B608CF31088002AE6D09047E4E70B4A29
:100E50009B00904643441A681A60BFF35F8F0023DB
:100E60002B608CF31088D7E7280100D000400540A4
:100E70002C0D00200C0D002064080020D03F054000
:100E800010B50100024A0348FFF766FC10BDC046DA
:100E9000744B00102A0D0020034B596A0A00986A0F
:100EA000596A8A42FAD170470040054070B5040083
:100EB0000D00EFF3108672B61A4A1368002BFCD0AF
:100EC000BFF35F8F002D1BD0200000F0DFFA164922
:100ED00081420AD0200000F0E1FA0121200000F058
:100EE000B7FA0123A340114A1360114BA400E55047
:100EF000BFF35F8F00220B4B1A6086F3108870BD22
:100F00000B4BA200D5500122A2400A4920000B78C9
:100F100093430B70044900F0EBFA0021200000F02D
:100F200097FAE5E7280100D0C90D001038600540A8
:100F3000640800202C0D0020F0B54F46D6464646EA
:100F4000C0B507002F4C616A0D00A66A616AA9420C
:100F5000FAD18B4208D805D00120E0BCBA46B14690
:100F6000A846F0BDB242F7D9EFF3108A72B6264810
:100F700001680029FCD0BFF35F8F0125BD402349E4
:100F8000204C8846097889462943C9B28C46414697
:100F900060460870391D1E48890065630A51B90012
:100FA0000B50216A0020294219D0616A0800A66A04
:100FB000616A8142FAD18B4219D801D1B24216D866
:100FC000CC451DD00F4B1F201D625D6301230740E0
:100FD000BB40104A1E38136043464A461A70BFF39E
:100FE0005F8F0022084B1A608AF31088B5E7002053
:100FF000BFF35F8F0022044B1A608AF31088ACE7BE
:101000000120ECE700400540280100D02C0D002015
:101010000C0D002080E200E0EFF3108C72B60A495C
:101020000B68002BFCD0BFF35F8F01238340074A7E
:101030000748136202789A430270BFF35F8F002360
:101040000B608CF310887047280100D000400540E9
:101050002C0D002070B5050014001600002915D0D5
:101060000C00002A12D080686B6898472968002815
:101070000ED073009B196200033B1219CB18033A80
:101080009C7088188A5C002A15D10670200070BDFB
:1010900063001B197200033B9219CB18033A9E7030
:1010A00088188A5C002A02D104703400EEE75A7076
:1010B00004703400EAE75A700670E7E730B58360E1
:1010C0000023CCB243730133047342608373C4734F
:1010D0000D000068012C06D9421C0133DBB21370ED
:1010E00003329C42F9D1FF2129404B0059180023BB
:1010F00040180338437030BDF8B5CE464746060069
:101100000C0080B5002907D04D0003686D18033D21
:101110005A195778002F04D12000C0BCB946B046F8
:10112000F8BD7900C919033988464344597889467E
:1011300000215970517073683A0021008068984707
:101140003368002814D042469A18947059195B5D90
:10115000002B00D053700F70270049463000FFF776
:10116000CBFF390002003000FFF774FF0400D3E723
:10117000424641465D19AF709A185B5C002B00D067
:101180006B701470E9E7C046F0B557464546DE4639
:101190004E46E0B50D006B0001685B19DF1E0400D0
:1011A000C85D83B00192CA1900284CD043001B18B7
:1011B000033BCB185E78B446002E16D1019E002E5C
:1011C0003ED0E67B002E04D073009B19CB18033B66
:1011D0005D70E57300282FD10023537003B0F0BC7D
:1011E000BB46B246A946A046F0BD72006244033A2F
:1011F00089184A78904600224A7091465A70010038
:1012000032002000FFF726FF43468246002B07D01E
:101210005B0021684344033BCB185A78002A16D15F
:10122000424651462000FFF715FF2168019BCA196D
:10123000002BC6D10028CFD043001B18033BCB188E
:1012400000219970C8E7019B002BBAD1C4E7500078
:101250008018033809184878834648464870587003
:1012600041462000FFF7F6FE594680462000FFF772
:1012700043FF414602002000FFF7ECFE8046CFE727
:10128000F0B557464546DE464E46E0B583B001917F
:10129000457B04006B0000685B19DF1EC15DC2194D
:1012A00000294ED04B005B18033BC3185E78B44650
:1012B000002E18D1019E002E40D0E67B002E04D0D7
:1012C00073009B19C318033B5D70E573002931D18E
:1012D000002328005370617303B0F0BCBB46B246D4
:1012E000A946A046F0BD72006244033A80184278D5
:1012F00090460022427091465A7020003200FFF75B
:10130000A9FE43468246002B07D05B002168434478
:10131000033BCB185A78002A17D142465146200089
:10132000FFF798FE019B01002068C219002BC4D171
:101330000029CDD04B005B18033BC31800209870E8
:10134000C6E7019B002BB8D1C2E7500080180338D4
:10135000091848788346484648705870414620002E
:10136000FFF778FE594680462000FFF7C5FE41464C
:1013700002002000FFF76EFE8046CEE770B5040045
:1013800000292CD0437B8B422ED0056848004018A2
:10139000033828188278002A21D053009B18033B79
:1013A000EA5CEE188A4202D11BE0002A08D0530002
:1013B0009B18033BEB185A788A42F6D142785A7050
:1013C00000230122837043702000FFF7DDFE617B64
:1013D00002002000FFF73EFE6073012000E00020C5
:1013E00070BD43783370EBE701221900FFF7CCFEA4
:1013F00060730120F4E7C04610B50400FFF77AF9E6
:1014000001002000FFF760F9FF232371BFF35F8F16
:1014100010BDC04610B50400FFF76CF901002000B4
:10142000FFF752F9FF23A380BFF35F8F10BDC046C3
:1014300010B504000120FFF769F9044B9C46604495
:1014400080002060BFF35F8F10BDC04640000034B5
:1014500001238340002904D0034A1360034A136028
:101460007047034A1360FBE780E200E000E100E020
:1014700080E100E001228240034B1B6813405A1EAA
:101480009341D8B27047C04600E100E0024B1030F3
:101490009B688000C058704700ED00E070B50D00FB
:1014A000EFF3108672B60F4A1368002BFCD0BFF31F
:1014B0005F8F0D4B10309B6884001B590B4A934281
:1014C00003D09D4201D000F0A9FA074B9B681D5143
:1014D000BFF35F8FBFF35F8F0022024B1A6086F36A
:1014E000108870BD240100D000ED00E0CD01001097
:1014F000F0B5DE4657464E464546E0B50C0083B093
:10150000EFF3108A72B65A4A1368002BFCD0BFF36F
:101510005F8F1022914681444A46564B96009B6845
:101520009D59554B98469D4205D0A54216D0534F24
:10153000EB1B2F2B14D94F4B9B689D51BFF35F8F33
:10154000BFF35F8F00224A4B1A608AF3108803B002
:10155000F0BCBB46B246A946A046F0BD1D00EAE776
:10156000012383409B465A46454B1B681A40009214
:101570005A46444B1A60BFF35F8FFEF774FE01902A
:10158000002803D0814501D000F048FA01232A0049
:101590009A4393689C4208D15FE04B005B189B0024
:1015A000FB189968A14211D01A0006215156002952
:1015B000F3DA009B002B05D05A46334B1A60304BB0
:1015C0001A60B8E75A462F4B1A60B4E706215956FD
:1015D000002921DB4A00501880003C188046A06892
:1015E0009860E079D871062020569871002824DB95
:1015F000A488F81A6405241544440019E024000561
:10160000400D2402204398805218204B9200BF18AE
:101610001A781970BA71CCE70199002910D1FF31FD
:1016200091711B49918019490A789A71194ADB1BFB
:101630005B415A43120D0A70BBE7BD200002E2E78E
:10164000154A1649D21A083A5002400D01439980B2
:10165000134952080A43DA80ABE7062151561300BA
:101660000029B7DA019A002AEAD14546DBE7C046ED
:10167000240100D000ED00E0CD0100108402002024
:1016800000E100E080E100E080E200E02B0D0020BE
:1016900000BDFFFFAAAA0000BE02002000F0FFFF6D
:1016A00000F8FFFFF8B5012504000543FEF7DBFD58
:1016B000EFF3108C72B6214A1368002BFCD0BFF3F5
:1016C0005F8F1F4E2100B7681E4A1F4B891A494180
:1016D0004B431B0D59B28300F858A8421CD0062377
:1016E000D3568B421CD01223D3568B4222D01E23BA
:1016F000D3568B4220D02A23D35603208B4210D0BE
:10170000124B1A781970A271BFF35F8F00220B4B36
:101710001A608CF31088F8BDB2680D48D050EFE71E
:10172000002043001B189B00D218FF239371094B24
:101730009380E5E70120F4E70220F2E7240100D0DE
:1017400000ED00E084020020AAAA00002B0D00207A
:10175000CD01001000BDFFFF054B064A1360064A8D
:10176000136053609360D36013615361936170475A
:101770008080808000E400E004E400E0094A830007
:1017800094464022634410B51C68C0006240C024E7
:1017900014408022520113431C60034B9C4660445A
:1017A000416010BD04C00140004001400A4B800070
:1017B0009C4604236044002901D00C230821002A00
:1017C00000D10B00026853400C221A4080235B01B9
:1017D000184302607047C04604C001400123D02274
:1017E0008340120693629361094A83009446402223
:1017F00063441968C0004A40C02111408022520150
:1018000013431960034B9C460523604443607047B3
:1018100004C0014000400140F8B5040006200D005E
:1018200000F060FA002844D02A4B2B49E2185342BA
:101830005A418023DB039C469205284B62441A6080
:10184000274B1A6010008B689843FBD1214B8021F5
:10185000E3185A425341234A5B004900995206203B
:1018600000F040FA2900C00000F010FBC30921D1AC
:1018700040270121260080256162A36200232C36C7
:10188000AD0135432B60062000F02CFA39008000B2
:1018900000F0FCFA6023E26A53406E221A40802373
:1018A0005B0133431A60104B236310232B600D3B05
:1018B000A364F8BD0D4A934203D900230C4F0D4990
:1018C000D8E77F221040013040089F0119003F18DF
:1018D0000300CFE70080FCBF00C0004000E00040F4
:1018E00000F000401C0D002001030000FEFF00007E
:1018F000C0FF3F00FFFF00002C4B2D4A70B51A605F
:101900002C4A2D4B2D491A6014008B689C43FBD147
:101910002B4D2C4EB54208D2013E761BB60808CDA1
:10192000984723000134B342F9D100F07DF8264AEC
:10193000214B1A60214A9368DB43DB01DD09002B50
:10194000F9D14022214B224C224E9A675A671A67DE
:10195000DA66B44208D223682000002B20D0083475
:10196000FFF758FDB442F6D31B4E1C4CC022A168B1
:10197000300000F0EDFDA660FEF7AEFEFFF7ECFED6
:10198000FFF786F9164C174EB44208D2013E361BBB
:10199000B60808CC98472B0001359E42F9D170BD9E
:1019A0000834FFF729FDB442D5D3DDE700E000405D
:1019B000BFCDFBFEFE7F3C0000F0004000C00040B9
:1019C0004003002050030020FFFFFF0100F0014012
:1019D00030030020400300200000002000ED00E064
:1019E000500300205403002000BEFDE70FB400B5F3
:1019F000084883B000F0E2FE049B002B07D005A945
:101A00001800019100F0F0F9034800F0D7FE00BE85
:101A1000FDE7C046984B0010A84B001010B50148D8
:101A2000FFF7E4FFAC4B001030B50C2083B000F0A2
:101A3000B7F9FEF701FF00280ED0944B944A1A60C4
:101A40005A609A60DA601A615A619A61DA611A62C0
:101A5000904A5A6203B030BD8F4CA06700F0A8F9DD
:101A600001228E4B1A60636C012BFCD103228C4B3C
:101A70001A60894A936B012BFCD101330121894AF9
:101A800089480093043300F033F90523874A009313
:101A90000121874800F02CF9864B5A68FF2A02D8AA
:101AA000802252005A608022784C7D4B21691201BD
:101AB000804D1A60002905D0606900F0E7F9013017
:101AC0000138FDD1E0217B4B02201A6811408022B1
:101AD00052012A43116019684840032101401160F6
:101AE00004219A681142FCD08022802192012A436D
:101AF00009011160802252005A606F4B23616F4BC5
:101B00005968FF2900D85A600321644A6B4B116061
:101B100002399A681142FCD0E0201A6810408022F5
:101B200052011A4310601868484003210140022006
:101B3000116062498A681042FCD0802292011343EE
:101B4000802212011A6080225D4B52004A6063615C
:101B50005C4B5968FF2900D85A6080225A4BE169D2
:101B60001201584D1A60002905D0606900F08EF905
:101B700001300138FDD1E02252490B681A40802320
:101B80005B012B431A60802380229B012B431201AF
:101B90001A6080223E4B52004A60E3614B4B596809
:101BA000FF2900D85A608022494B216A1201474D13
:101BB0001A60002905D0606900F068F90130013829
:101BC000FDD1E02241490B681A4080235B012B4381
:101BD0001A60802380229B012B4312011A6080230C
:101BE00080225B004B602A4BD2022362394B59683A
:101BF000914200D25A608022374B616A1201354D02
:101C00001A60002905D0606900F040F90130013800
:101C1000FDD1E0222F490B681A4080235B012B4342
:101C20001A60802380229B012B4312011A608023BB
:101C3000DB024B60174B6362284B5A68FF2A02D8BD
:101C4000802252005A608022254BA1691201234D47
:101C50001A60002905D0606900F018F901300138D8
:101C6000FDD1E0221D490B681A4080235B012B4304
:101C70001A60802380229B012B4312011A6080236B
:101C80005B004B600E4BA361E4E6C0467808002081
:101C9000006CDC021BB70000008000403CB000403C
:101CA00030B00040002F685900800240008C864709
:101CB00000C0024030800040001BB7003C80004064
:101CC000405973075480004054B000406080004089
:101CD00060B000406C8000406CB000404880004024
:101CE00048B00040014B8000C05870477808002081
:101CF000F0B5C646040000B50C2090461F000E004B
:101D000000F0C4F84101091A8D01691AC9000918C7
:101D10008901404600F0BAF8069B3F041A03236885
:101D20001743002B22DB1A4B1A4DE21853425A413B
:101D300080235B019C461203174B62441A60174BC9
:101D40001A601100AB689943FBD1C022231D920198
:101D50001A4321232660A06013602368002BFCDA5D
:101D60000823E760136080BCB846F0BD3F232268BB
:101D70001340B342D7D1A3681B051B0D8342D2D1B8
:101D8000EE22E368D2021340BB42CCD1EBE7C0465F
:101D90000040FDBF00C0004000E0004000F00040F7
:101DA0008023024A9B000343D362704700800540B2
:101DB000AA23064A1B0113602F230549D360054B54
:101DC00019605368002BFCDA7047C046004002409F
:101DD00000B0FA000060024010B5002800D110BD2C
:101DE00000F09CFCFBE7C04610B5094A03001468EC
:101DF00084B0002C08D0012200910648524203A969
:101E0000A047012004B010BD00F0D8FC0020F9E785
:101E1000E80C0020D91D001001480421014B18478F
:101E2000D0020020491E0010142310B501001888AC
:101E300004331B88984710BD162310B5010018887D
:101E400002331B88984710BDF8B54746CE4680B58B
:101E50000F1E19D0142399460433040000250126CF
:101E600098464B461888434621681B88984701C40A
:101E7000431E9841013540420640AF42F1D1300047
:101E8000C0BCB946B046F8BD0126F8E7114A936FC9
:101E90009B0813D210665166002905D0FFE7FFE7C3
:101EA000FFE7516F106F704704B5002801D0002084
:101EB000C04302F0D9FD002104BDC046F0B5146E48
:101EC000556E576F166FFFF7E5FF14665566576737
:101ED0001667F0BD000000D094464E4A926F9208FB
:101EE000624601D230E0C046F0B54A4EB56F6D088B
:101EF000FCD3346E756E776F366F00F025F894461C
:101F0000444A14665566576716676246F0BDC04678
:101F10009446404A926F9208624601D258E0C04609
:101F2000F0B53C4EB56F6D08FCD3346E756E776FAF
:101F3000366F00F04DF89446364A1466556657677A
:101F400016676246F0BDC046002B24DB11D0002985
:101F50003EDA00B5C943404200D1013100F038F803
:101F6000C943404200D10131DB43524200D1013329
:101F700000BD002AEBD1002801D1002905D00020A6
:101F8000C90FC90701D1C043410800B502F064FD83
:101F90000022002300BD00B500290ADBDB435242CA
:101FA00000D1013300F014F8C943404200D101319F
:101FB00000BDC943404200D10131DB43524200D150
:101FC000013300F005F8DB43524200D1013300BD7C
:101FD000002923D1002B18D1002A0CD0BC460D4F6C
:101FE00038667A6600210023FFE7FFE7FFE77A6F94
:101FF000386F67467047002801D00748010000B5D8
:1020000002F02AFD0022002300BD02000B00002088
:1020100000217047000000D0FFFFFFFF002B00D021
:10202000BFE0130C28D1002AE7D080B4114F3966E5
:102030007A66FFE7FFE730B4040C7B6F396F1B044F
:1020400023433B667A66FFE7FFE7FFE7C04684B2BB
:102050007B6F3D6F1B0423433B667A66FFE7FFE718
:10206000C04600232C042D0C7A6F386F001969418B
:10207000B0BC7047000000D0F0B594460025140EA7
:1020800001D112020835140F01D112010435940F49
:1020900001D192000235D40F01D152000135D40B89
:1020A0000134254F7C66254C3C660E0C93B2FFE74D
:1020B000FFE7FFE73C6F6643360C7703BE4673438A
:1020C000DF0B5B04C01AB941130C7343DB18C91A48
:1020D000CE086643360CB64493B273431F0F1B0100
:1020E000C01AB941130C73431F0B1B05C01AB94129
:1020F000860D8F023E436643360C092D24DB520ABF
:102100007243801A7703460A6643360C16235B1B1C
:10211000DE40DF40BF1964466643821B70460435CB
:1021200006330100D940A840C01900D30131A242B2
:1021300006D20023F0BD0000000000D0FFFFFFFF2B
:10214000121B0130F3D3F1E709277F1BFE406446E1
:10215000A2B27243801A00D20139220C7243130CCE
:102160001204821A99410B0070460435133701009E
:10217000F940A840801900D30131002B02D1A242BE
:102180000AD2F0BD013000D30131121BFAD2013B5B
:10219000F8D1A24200D2F0BD013000D30131121BB0
:1021A000F7E7F0B51C0C00D080E00CB400251C0A49
:1021B00004D11B02160E3343120208351C0B04D146
:1021C0001B01160F3343120104359C0B04D19B00F5
:1021D000960F334392000235DC0B02D192185B411B
:1021E00001351C00971864410134464F7C66464C0B
:1021F0003C660E0CFFE7FFE7FFE7C0463C6F664317
:10220000360C7703BE4697B27743C01B00D2013924
:10221000C01B00D201399FB27743C91BC91B170CE1
:1022200077437E04FF0B801BB941CE086643360C12
:102230000C2D33DBB644120B1F053A431B0B97B230
:102240007743C01B00D201399FB27743C91B170CDB
:1022500077433E043F0C801BB941860D8F023E43FD
:10226000664329277F1BFE400C3D7746AF40BF19D0
:1022700030BCA2B2ABB272437343801A9941220CB4
:102280007243130C1204801A994102000B000137AB
:10229000001BA941F9D2781E0021F0BD0C277F1B3D
:1022A000FE4077467F0BAF40FF19E0E700245D1C3E
:1022B00007D0144F7D663966FFE7FFE7FFE7FFE7CA
:1022C0003C6F95B29EB265436643401BB141150C0D
:1022D0001E0C6543664336042F0C3E432D04401B01
:1022E000B141994204D202000B0020000021F0BD50
:1022F00001D19042F7D3801A994101349942F2D327
:10230000F6E70000000000D0FFFFFFFF132370B5C9
:102310001D78012D15D010DD1C48FFF78DFD1C4CDC
:1023200001008022200000F013F9022D06D0194888
:10233000FFF77AFD184B186070BD154C174BA3645E
:10234000F5E7164B124C23606360A360E3602361E2
:102350006361A361E36123626362A362E362236357
:102360006363A363E36323646364A364E364236537
:102370006365A365E36523666366A366E366236717
:102380006367A367E367A364D1E7C04653440000D3
:10239000580400204C330000000D0020A123001041
:1023A00007B5604601880A0A0230DF2AFAD1C9B2AD
:1023B000820804D3028840880004104300E00068CB
:1023C000014A5050039007BD580400205143434335
:1023D000C9188C46110C83B24B4310B4040C6143F2
:1023E00092B280B2504362431C041B0C001910BC13
:1023F00059411304120CC018514161447047000048
:102400004840414048400E4B5B6818470C4B1B68E6
:1024100018470C4A936F9B0802D2094BDB68184798
:10242000F0B5146E556E576F166FFFF7F6FF054A3D
:102430001466556657671667F0BD014B9B681847D1
:1024400058050020000000D0491A002808D108468D
:1024500070470000C10FC90700D54042002817D0BF
:10246000F44603B40B4B1B68984706BC81409E386A
:102470004042803107D20B0607D04900490AC00507
:102480001043084360470130F8E7490A8902F5E73D
:1024900070470000000D0020014B5B6A18470000E8
:1024A00058050020132310B512481C78FFF7C4FC10
:1024B0000100012C0AD003DD80220F4800F048F80B
:1024C0000E48FFF7B1FC0E4B186010BD0A4C5422A9
:1024D000200000F03DF80B4B6365A365E3652366C0
:1024E0006366A366E36623676367A367E3672362A4
:1024F000E361E5E753460000580500204C33000037
:10250000000D00200925001007B5604601880A0A61
:102510000230DF2AFAD1C9B2820804D30288408887
:102520000004104300E00068014A5050039007BDCA
:102530005805002001480421014B1847E002002003
:10254000491E0010014B1B6818470000E0020020E4
:10255000014B5B6818470000E0020020030010B543
:10256000080011001B68984710BDC046F0B54646EC
:102570004F46D646C0B5437C80460E001700002B60
:1025800046D0002A3FDD4B1E9946244B01250024EE
:1025900000209A460DE04B461B5D0D3B5A425341CD
:1025A000325DDBB20A2A0BD02B00013401359F4289
:1025B0001ADD002CEFD14346325D1B7C0A2AF3D191
:1025C000002BF1D1A04204DA4346211A1B683018CF
:1025D0009847434650461B6802219847013428001B
:1025E0002B0001359F42E4DC874204DD4346391A63
:1025F0001B6830189847F619013E33780D3B5A4254
:10260000534142461374E0BCBA46B146A846F0BDF9
:102610000368110030009847F5E7C046104C0010E1
:10262000F0B557464E464546DE461C00D023E0B581
:102630001B061F68344B83B006000D00180001A96B
:1026400091469A4602F018FA8046002808D1019B6C
:102650007FB29F4204D0504602F01EFA01239846F2
:102660006B1C03D1300002F0BFF90500002C27D10C
:10267000264F274B1C68002C18D04B46002B21D12D
:10268000244B994602E0E468002C0FD02368002B0D
:10269000F9D04B461B68002B01D0A342F3D1200098
:1026A0002A003100B847E468002CEFD14346002BE4
:1026B00025D103B0F0BCBB46B246A946A046F0BD4A
:1026C000154FD6E7134B99460A239B4602E0E46870
:1026D000002CEBD02368002BF9D04B461B68002B55
:1026E00001D0A342F3D12A0031002000B8475A4656
:1026F0006B4620001A7101A90122B847E7E750464E
:1027000002F0A2F9D5E7C046380300206D2500107D
:10271000E0080020E40800205D250010F0B5CE465A
:10272000474680B583B06B46DE1CD02330701B0655
:102730001C681F4B804601A91800994602F09CF9BD
:10274000071E20D01B4B1C68002C28D01A4D02E01D
:10275000E468002C0FD02368002BF9D02B68002BE5
:1027600001D0A342F4D1200001223100FFF7FEFE88
:10277000E468002CEFD1002F11D1404603B0C0BC5B
:10278000B946B046F0BD019B64B29C420BD04846AE
:1027900002F082F9074B01271C68002CD6D148466D
:1027A00002F052F9E9E7034B1C68002CCED1E4E7B4
:1027B00038030020E0080020E408002070B5040081
:1027C00002F012F900230100050001222000FFF7AA
:1027D00027FF084B1C68002C06D06368002B05D02F
:1027E0009847E468002CF8D1280070BDE468002CFC
:1027F000F3D1F9E7E00800200A4A1368002B05D15D
:102800000CE01A00DB680C32002B07D09842F8D19C
:10281000002902D1C3681360C16070470029FCD051
:102820001060FAE7E008002010B500F043F810BD92
:10283000F0B50D1E15DD0E4B0D271A680D4B451911
:10284000D31859424B410C495B005E5E202104784D
:10285000A64207D093691942FCD101301460A84206
:10286000F5D1F0BD93691942FCD11760F2E7C0467B
:10287000240D00200080FCBF1C0D002030B504009A
:102880000D1E12DD00201021094B013C1A689369CE
:10289000194208D1013093691942FCD113682354BD
:1028A0008542F4D130BD0028FCD103204042F9E735
:1028B000240D0020E12110B50B4B0C481B780C4B6C
:1028C00049021B780B4B1860FEF7A6FF022100207F
:1028D000FEF754FF02210120FEF750FF01210648B8
:1028E000FFF78AFF10BDC046D84D001000400340DE
:1028F000DC4D0010240D0020F002002070B51C00FB
:102900000A4B15001860FEF787FF002D03DB02213C
:102910002800FEF733FF002C03DB02212000FEF726
:102920002DFF01210248FFF767FF70BD240D002035
:10293000F0020020F0B5D6464F4646468846C0B560
:1029400005240600FDF7F2FE43461F791C57284B6D
:102950008146F01843425841264B9A4683009C46D4
:1029600053466246985801222023BA40DB1B013AA5
:10297000002C32DB9C422DDCA2401500104229D1F4
:10298000002F1AD043465A78197812021143424652
:102990009B78D2781B040B4312061A439046002200
:1029A00041465300C95A4B0B00D109191319123370
:1029B0009B00013299519742F2D853466246054333
:1029C0009D504846FDF7BEFE2000E0BCBA46B14629
:1029D000A846F0BD0848FFF709F8002B02DAF9E72E
:1029E000013BF7D315009D401C000542F8D1C7E715
:1029F0000000D0AF5C080020544C0010F0B54E46EB
:102A00004546DE4657468A464900E0B50D008046F9
:102A10005544ED0045448946290009AC2678DC314F
:102A2000741EA64108687442844614481F268346D3
:102A300026405E44052B0CD9A0201F274005D83521
:102A4000540104430532053B0C603A402E60052BCF
:102A5000F6D849465144C900414452019B061343EC
:102A60000A000800DC3213606346D8300660136049
:102A7000F0BCBB46B246A946A046F0BD80E00000CF
:102A8000F0B501258D400468AC434D0004606C181E
:102A9000E40004192600C836002B2AD01F68DC3455
:102AA00037605F6877609F68DB68B76023606D1888
:102AB000EB001D008024D035451964012C4380258E
:102AC0002D0625602560114C0D1D8C40846001246D
:102AD0002700AF403D0008318C401F2106680A40A6
:102AE0003543056005682C430460C018D830026087
:102AF000F0BD80277F023760F8277F027760C0270C
:102B0000DC343F03B7602360D1E7C0460101010117
:102B1000F0B5982357464546DE464E466C4AE0B52A
:102B2000D75880253C006D02883B9A4683B02C40E4
:102B30002F420FD001222321664B00205A54DA7015
:102B4000654901F059FA8022644B92021A65644B80
:102B50002C009A46FB0617D480235B011F4245D107
:102B60008023DB011F4200D088E080231B021F422C
:102B700000D091E0BC4200D0A5E003B0F0BCBB4661
:102B8000B246A946A046F0BD514B9B6D9846002B1E
:102B900027D0524B00249B460123994643460126E9
:102BA000B8461F0004E001347600E4B2202C17D0B0
:102BB0003742F8D05B469E654B466508A3436D00DF
:102BC000ED18444B6D019C466544280000F08AFBDB
:102BD00000286CD10134B743E4B27600002FE5D170
:102BE000474680235B0154461F42B9D01C43002353
:102BF000374A00211360384A3A489360D3603A4A12
:102C00009360D360394A9360D360394A9360D3604C
:102C1000384A9360D360384A9360D360374A9360F0
:102C2000D360374A9360D360364A9360D360364AA4
:102C30009360D360354A9360D360354A9360D36024
:102C4000344A9360D360344A9360D360334A9360CC
:102C5000D360F0229200FFF775FC314B314A00211E
:102C60001A600020012201F09DF980221B4B120303
:102C70001A658023DB011F4200D176E7012204217F
:102C800000201C4301F0FEF81022144B1A6580232B
:102C90001B021F4200D16DE70122052100201C43C9
:102CA00001F0F0F880220D4B12011A6562E74B46E5
:102CB000AA8AA97800200093002301F0C5F9280012
:102CC00000F04CFA86E7210017487940FEF78EFEA7
:102CD00000001150E8080020000010500030115092
:102CE00010000100280900200800105010001050AA
:102CF00018001050200010502800105030001050C4
:102D00003800105040001050480010505000105033
:102D100058001050600010506800105070001050A3
:102D2000EC0C002080011050684C001010B50121FF
:102D30000520FEF78DFB10BD10B5002200210248D2
:102D400000F034FA10BDC046080900208022024B72
:102D50005202DA647047C04600201150F0B5C646F2
:102D600000B5060000F0D4F90C23354D0520AB6703
:102D70003449FEF793FB40239846334C4022002110
:102D80002000FFF7DFFB43460127A3832121002317
:102D90002E4A6770A260136063545F3161844146BC
:102DA000A187023963542A4A2A496360E260A1621A
:102DB0000B60E262284A63629360D360274A200076
:102DC0009360D360264A00219360D360254A403047
:102DD0009360D360244A9360D360244A9360D360A5
:102DE000234A9360D360234A9360D360224A93605E
:102DF000D360224A9360D360214A9360D360214A12
:102E00009360D360204A9360D360204A9360D3607C
:102E10001F4A9360D360F0229200FFF793FB1D4B93
:102E20001D4A30001A6080239B052F64EB649023B9
:102E30001A4AEA50FFF78AFF80BCB846F0BDC04688
:102E400000001150112B0010E808002084001050E1
:102E50000001105080001050000010500800105069
:102E60001000105018001050200010502800105072
:102E700030001050380010504000105048001050E2
:102E80005000105058001050600010506800105052
:102E900070001050EC0C00208001105010D0010088
:102EA0000B785B0602D14B78052B00D070478A78EF
:102EB000014B1A60FAE7C04600001150F0B5CE464B
:102EC0004746072380B548798E780A790340C87849
:102ED0007F21800731401B02F40913434F00820F0A
:102EE000944691462A4D3A195201AA189670012625
:102EF00066405670604600269383D6709077CA006D
:102F0000012C29D023488446880162448446AC447D
:102F1000604682601660002929D01F4AC900904689
:102F2000414441603F223F3393434A46022A00D145
:102F30005B001A493F190A687F01D3180B60184BD0
:102F4000ED195340EA604A469006184380231B0659
:102F500018436B68186010E0124884468801624488
:102F60008446AC4460468262166000290AD1002380
:102F700064012D196B600C4BEB600120C0BCB9469D
:102F8000B046F0BD064AC900904641444162C9E7D7
:102F9000E80800208400105004001050EC0C0020C1
:102FA00000001050800010500001105000231C4AF7
:102FB00010B59360D3601B4A00219360D3601A4A16
:102FC0001A489360D3601A4A9360D360194A936099
:102FD000D360194A9360D360184A9360D360184A4B
:102FE0009360D360174A9360D360174A9360D360AD
:102FF000164A9360D360164A9360D360154A936073
:10300000D360154A9360D360144A9360D360F02272
:103010009200FFF797FA124B124A1A6010BDC04691
:103020000000105008001050100010502809002017
:103030001800105020001050280010503000105080
:1030400038001050400010504800105050001050F0
:103050005800105060001050680010507000105060
:10306000EC0C00208001105010B57F200C00204097
:103070004000E409110000191A00034B4001C01878
:1030800000F094F8012010BDE80800207F22130012
:1030900010B50B400A420BD0C909802258004018D5
:1030A0000649400140181201002100F05DF810BDF2
:1030B00002220348C909521A8266EEE7E808002096
:1030C000002011507F22100010B508400A4200D1A4
:1030D00010BD0023C90940004018044940010818E8
:1030E00000220349C37000F03FF8F1E7E808002030
:1030F000FFF7FFFF7F21C309034A9B00014010B582
:103100009A580248FEF772FC040300207C4C001021
:1031100080220D4B520410B51A600C4B0C491A60FA
:1031200010008B689843FBD10A4C9C2200212000A0
:10313000FFF708FA8022002152010748FFF702FA40
:103140000923636710BDC04600E0004000F0004066
:1031500000C0004000001150000010500023037414
:10316000438283828361704710B58368002901D050
:103170001C682140002A11D08024E400114322421F
:103180000CD01A6822420BD1074A0A401A60FFE7A6
:10319000FFE7FFE7FFE7FFE7FFE78368196010BD80
:1031A0008078FFF7A7FFC046FFFBFFFFF0B5C646DC
:1031B000002300B5838201330374436804001E6852
:1031C000838B81611F1C934200D9171C8025BFB2DD
:1031D000D21B93B2E278ED0063823D43002A02D015
:1031E0009025AD013D4301204240E2706278002A03
:1031F00051D0002B1DD1A023DB011D43354B1B6C8F
:10320000354B33408026B6051E436368A2681E60B6
:1032100013685B055AD4314B2B401360FFE7FFE77F
:10322000FFE7FFE7FFE7FFE7A3681D6080BCB84644
:10323000F0BD802252011543264A126C920703D436
:10324000A278D209012ADBD1A28B111C9A4200D9A3
:10325000191C80278AB2FF009B1A90461743E27818
:103260009BB26382002A03D090274146BF010F43DF
:1032700001214A40E2706278002A19D0002B02D165
:103280008023DB011F43164B3F043340A026F60585
:103290003D431E43B9E73A00E068FFF759F9A369D7
:1032A0009C46802367441B021D43A761638AA0E7F5
:1032B000E0684246A1694030FFF74AF9A3694344F8
:1032C000A36180231B021F43638AD7E7A078FFF71F
:1032D00011FFC04600001150FFFFFFAFFFFBFFFFD3
:1032E000FFFFFFDFF0B5C64600B5067C0400002EE8
:1032F00000D1D3E083681A681D684378AD05AD0D31
:10330000002B51D1838AEB189BB28382A18B8D4213
:1033100007D20023638263681B68300080BCB84614
:10332000F0BD62681268520002D58D4200D175E08E
:10333000638A002BF1D062681F1C16688B4200D98B
:103340000F1C8025BFB2DB1BE2789BB2ED006382CD
:103350003D43002A02D09025AD013D4301214A4062
:10336000E2706278002A68D0002B2AD1A023DB010A
:103370001D434F4B1B6C4F4B33408026B6051E43FD
:103380006368A2681E6013685B0500D58DE04A4B38
:103390002B401360FFE7FFE7FFE7FFE7FFE7FFE7EB
:1033A000A36800261D60B8E72A00C1688069FFF79E
:1033B000CFF8A38AA269EB189BB25219A382A2612B
:1033C000A4E7802252011543394A126C920703D4B4
:1033D000A278D209012ACED1A28B111C9A423FD8E1
:1033E00080278AB2FF009B1A90461743E2789BB26F
:1033F0006382002A2FD101214A40E2706278002ABC
:103400003ED0002B02D18023DB011F432B4B3F0416
:103410003340A026F6053D431E43B1E7A268156878
:103420006278AD01AD0D002A1CD1EB18A3828D424C
:1034300000D37DE7002363826FE73A00A169E0686B
:10344000FFF786F8A3699C46802367441B021D434F
:10345000A761638A88E790274146BF010F43CAE707
:10346000191CBDE7E1682A004031A069FFF770F838
:10347000A38AA18BEB18A382A3695B19A361D6E78A
:10348000E0684246A1694030FFF762F8A36943440F
:10349000A36180231B021F43638AB2E77F238178E5
:1034A000074A08481940FEF7A1FAA078FFF722FE64
:1034B00000001150FFFFFFAFFFFBFFFFFFFFFFDF2B
:1034C000040300209C4C0010024B5878431E984186
:1034D000C0B2704740070020024B18784007C00F69
:1034E0007047C04640070020014B18787047C0461F
:1034F000290D0020F8B54746CE4680B5294F050076
:103500003B78002B04D00120C0BCB946B046F8BDC2
:10351000532200212448FFF715F8244C2000FDF722
:103520006BFF234B1C60234C20001C30FDF780FFF9
:10353000200001F01BFA204B204E1C60204B9846C7
:10354000002B04D0300000E000BF1E4B1860424644
:1035500000243378002A1DD01B4A9046194A914610
:103560009C4210D31BD14346984701343378E4B2D0
:10357000A342F5D22800FFF7F1FB2800FFF7D6FBA6
:1035800001233B70BFE74A46630012681B19DB004A
:103590009B58E9E700F0A4FF3378002BEAD0002322
:1035A0001B68FFDE290D002040070020F8060020E0
:1035B000940700200C03002098070020280D00200D
:1035C0000000000074060020E1440010F0B5DE4663
:1035D00057464E464546E0B58BB001F0E5F8002869
:1035E00000D147E1C44BC54D994607AC2E68F2693E
:1035F000EFF3108172B61368002BFCD0BFF35F8F1E
:1036000031623000210001F025F9F269336ABFF31D
:103610005F8F0021116083F31088002800D129E119
:103620006378082BE2D8B64A9B00D3589F4663685C
:10363000002BDBD0A0689847D8E77F222179AE4BDA
:103640000A405600C8099B191B1818000127303082
:10365000C678BE43C670C6780337BE43C670002A1C
:1036600000D10EE1A74ADB7C002A06D0A64A1278D8
:10367000934200D293E19B1ADBB2002B00D0F9E019
:10368000A24E62792078A368B047AFE74B4601228B
:103690001B78012113434A46137033234846D25CFA
:1036A0004E468A43C254C25C04208243F254013322
:1036B000F25C27788A43F254F25C8243F254002091
:1036C00000F01AFE602223791A40602A0DD0402AA9
:1036D00000D1F3E0DB06DB0E012B00D16AE1022B07
:1036E00000D123E1002B00D1F7E020780021FFF783
:1036F000CDFC80212078FFF7C9FC77E77E4B1B7853
:10370000DB0700D472E7824B002B00D16EE700E0AC
:1037100000BF6BE7784B1A78D20700D466E77D4A82
:10372000002A00D162E718780007C00F00E000BF50
:103730005CE7754E734A00273378002A00D1B7E062
:10374000754A9046BB4209D8BB4200D0B3E001376E
:10375000FFB29F4200D949E7BB42F5D9414609680B
:103760007A008C46D219D20062445269002AEED007
:103770002078904701373378FFB29F42E2D935E78E
:103780002378614E5F4A984600273378002A00D19B
:1037900086E0624A9246604A934632004646904628
:1037A000BB425ED800D078E053463000984743468D
:1037B00001371B78FFB2BB42F2D24F4E5322002199
:1037C0003000FEF7BFFE1022FF21F01CFEF7BAFE0C
:1037D00030002022FF211330FEF7B4FE00F082FDFE
:1037E0004F4B002B00D101E700E000BFFEE623783D
:1037F000454E444A984600273378002A47D0474A26
:103800009246454A93463200464690469F421FD311
:1038100043D1534630009847434601371B78FFB2E7
:10382000BB42F3D2344E532200213000FEF78AFE11
:103830001022FF21F01CFEF785FE30002022FF2120
:103840001330FEF77FFE00F04DFD2379B370CDE617
:103850005A4612687B009446DB19DB0063445B68C0
:10386000D8E75A4612687B009446DB19DB006344B4
:103870005B689AE70BB0F0BCBB46B246A946A046CF
:10388000F0BD62792078A36800F04AFDAEE64046BC
:1038900000F030FE3378002BC4D000235B68FFDEDD
:1038A000404600F027FE3378002B00D185E7F4E78F
:1038B000002B00D19AE600235B69FFDE194800283F
:1038C00000D112E700F018FD0021380008AA00E03E
:1038D00000BF002800D089E607E7202A00D19EE03B
:1038E000002A00D001E76379092B00D9FDE60E4AD2
:1038F0009B00D3589F46C0464007002098070020F1
:10390000C84C001000000000280D002039470010AE
:10391000000000000000000074060020F5440010C4
:103920000000000000000000EC4C00107023217A21
:103930000B4200D0D9E6C80984460F330B405B0028
:10394000F018B54E6044C07C002E06D0B34E3678D9
:10395000B04200D284E0801BC0B200287CD1002A93
:1039600070D1AF4E62799346022290465A46404645
:103970008243012A00D1F3E05A46002A00D0B4E67F
:103980004B4463443033DB7806AA9B07DB0F0232DB
:1039900013803800022308A900F046FC26E65A00EE
:1039A000D318A04ADB001268D318002B00D161E7BE
:1039B0001E6966E6237A0F2B00D996E6964A4B4499
:1039C000DB78002A05D0954A1278934256D39B1A89
:1039D000DBB2002B00D088E69348914E00F08CFCBF
:1039E00000213800F36808AA9847002800D0FDE5B8
:1039F0006022160023791E401A4200D075E66379D2
:103A00000A3B012B00D970E600F076FC63790A2BA3
:103A100000D1F8E0380008A900F0EEFBE6E5237AD3
:103A20000F2B00D961E67C4A4B44DB78002A06D094
:103A30007A4A1278934200D2B6E09B1ADBB2002B8E
:103A400000D052E67848764E00F056FC002138004F
:103A5000F36808AA98473CE70026002A82D044E68B
:103A6000460030186F4EC00036683618002A00D164
:103A700078E7002E00D138E6F068E5E7694A5E0095
:103A8000F3181668DB00F618002E00D12DE6F0685A
:103A9000A4E7A279029273789A4207D07378002B38
:103AA00000D02AE1029B002B00D0C3E04B46029AD3
:103AB000380008A95A7000F09FFB97E5E388012BB6
:103AC00000D012E60822337893434A461370A1E7E8
:103AD0000220317806AB9A1C8B068908DB0F014067
:103AE0000B4355E7737806AA02321370380001239E
:103AF00008A900F099FB79E5E088030AC0B20F2B12
:103B000000D9F2E549499A008A58974608A800F07A
:103B1000F9FB3800A179FFF70FF90222337813433C
:103B2000337063E5E388012B00D0DEE508223378AB
:103B30001343CAE7022B00D18EE13D4B002B00D18D
:103B4000D3E500E000BF0200002A00D1CDE5D37824
:103B500091781B020B43380008A900F065FBB8E61A
:103B6000E288002A0BD15A464B446344012A34D0E0
:103B70003022904698444346DB789B071ED5002EA2
:103B800000D133E5F06800F0B7FBF36808AA002124
:103B900038009847002000F0AFFB34234A46D35C3E
:103BA000DB0700D522E535E71E4A5E00F3181668EC
:103BB000DB00F618002E00D197E55DE73800FFF72F
:103BC00065FA43460222DB7813434246D370D3782A
:103BD000012213434246D370D1E72F3292469A44D2
:103BE0005346DB789B07CAD53800FFF76BFA53467C
:103BF0004246DB7893435246D370D3785A46934378
:103C00005246D370BBE706AB9A1C3800012308A9C3
:103C1000167000F009FBE9E400000000280D002008
:103C2000544D00107406002095450010144D0010EE
:103C300000000000581EC0B2FCF792FC002800D122
:103C400053E54378022B00D04FE50121C279BB46F2
:103C5000931152110B400A4012015B0113434A4673
:103C600012782F318A4313434A461370092398462A
:103C700080444746C37882781B021343C3180493D9
:103C8000049BBB4200D8DFE001227B7801920B2B22
:103C900004D1FB7801933B78FF187B78042B00D08C
:103CA00023E5049B6E4ADB1B9BB203936D4B0026FE
:103CB0001B78002A14D161E0B34270D16A4B039A99
:103CC0003900584690469847082802D9434683420F
:103CD00068D2644B01361B78F6B2B34200D204E5D9
:103CE000B342E9D9614B1B680593059A730094466A
:103CF0009B19DB0063449B68E1E73800FFF756F946
:103D0000B378574A574E9B4600213378002A2ED06D
:103D1000564A904632000E009246B3421ED800D05A
:103D2000BBE5534B38009847534601361B78F6B233
:103D3000B342F2D2532200214846FEF703FC4B4621
:103D40001022D81CFF21FEF7FDFB2022FF2149484D
:103D5000FEF7F8FB4B465A469A70A3E642461268B5
:103D6000730094469B19DB0063445B68DAE7380014
:103D700000F0C0FB3378002BDCD08EE539005846CC
:103D8000039A00F0C1FB80468246082802D9039BB3
:103D900098424ED9334B1B78002B00D1A5E4002369
:103DA0009B68FFDE019B8246002B0FD0BB78019AF7
:103DB0009A18D2B204E00133DBB2CE709A4205D039
:103DC0004946C918C878FF28F5D08EE43300390079
:103DD0005246284800F028FD224B57441B78B34236
:103DE00000D34DE781E4244B002B00D17DE400E0BB
:103DF00000BF021E00D178E43800137808A900F053
:103E000013FA66E52189FCF7AFFB021EF4D16CE4DE
:103E1000FCF79EFB1223020008A9380000F004FA08
:103E200057E5164B002B00D15FE400E000BF020015
:103E30008DE6019B002BB9D139004246084B0D4855
:103E400000F0F2FC47441BE70D4B5F46002B00D10E
:103E50002CE600E000BF29E6FCF782FB020073E6D7
:103E600000000000280D0020094500107406002005
:103E7000F54400105307002000000000000000007F
:103E80000000000030B587B005000C000C220021B6
:103E90006846FEF757FB6B461D705C70042C4FD0D4
:103EA00009D8022C34D0032C19D13C4B1A78520774
:103EB00058D407B030BD052C11D1384B1A78D20731
:103EC000F7D504211A788A431A70354B1C68E269C9
:103ED000EFF3108172B61368002B09D1FBE7304B6A
:103EE0001C68E269EFF3108172B61368002BFCD0F6
:103EF000BFF35F8F21626946200000F0F9FCE269A0
:103F0000236ABFF35F8F0021116083F31088D0E72D
:103F10000121224B1A788A431A701A780331A2437E
:103F20001A7000225A701A788A431A701C4B1C6847
:103F3000E269EFF3108172B61368002BD8D1FBE76A
:103F4000164B1A78D207B4D504211A780A431A708E
:103F5000134B1C68E269EFF3108172B61368002BF3
:103F6000C6D1FBE704211A7803A88A431A700021FE
:103F70000C22FEF7E7FA6B466A461D73052353735E
:103F8000074B1C68E269EFF3108172B61368002BCF
:103F9000FCD0BFF35F8F216203A9ADE7400700208B
:103FA0009807002070B584B001AC06000D000C220B
:103FB00000212000FEF7C6FA012363700D4B257126
:103FC0001D682670EA69EFF3108372B61168002944
:103FD000FCD0BFF35F8F2B622100280000F088FC2B
:103FE000EA692B6ABFF35F8F0021116083F31088A9
:103FF00004B070BD98070020002330B585B001AD36
:104000006B8028700633082202A86B70FEF7A0FAB6
:104010000C4B1C68E269EFF3108372B6116800293B
:10402000FCD0BFF35F8F23622900200000F060FC0A
:10403000E269236ABFF35F8F0021116083F3108868
:1040400005B030BD98070020F0B5C646804600B5E3
:1040500084B001AC0F0016000021082220001D00D2
:10406000FEF770FA43462370072363700F4B6571A8
:104070001D682771A660EA69EFF3108372B61168B4
:104080000029FCD0BFF35F8F2B622100280000F0D5
:104090002FFCEA692B6ABFF35F8F0021116083F365
:1040A000108804B080BCB846F0BDC0469807002018
:1040B000F0B54646D6464F468046C0B50C001500C2
:1040C0001E00002A2ED070239946184B00279A46CE
:1040D0006378052B0FD1E1788907890FB1420AD1A6
:1040E0004A46A3781A4206D153462000997800F038
:1040F0005FFB002805D10020E0BCBA46B146A846C7
:10410000F0BD21004046FEF7D9FE0028F3D0A37889
:10411000DA09012A08D0089A137023780137E418C5
:10412000AF42D5DB0120E7E7099AF5E74007002019
:1041300070B57F240C406300144CC909E41864185E
:104140003034E378DB07DD0F002B18D1E3785B0711
:1041500001D5280070BD01210D4E4942306800F0A4
:1041600093FCE378DB07DD0F002B0AD1E3785B07D4
:1041700008D40422E37801251343E37002E000250C
:10418000E7E70025306800F05FFCE2E74007002029
:104190009407002070B57F250F4C0D406D00641909
:1041A0000600C80924183034E5780020ED0700D552
:1041B00070BD0125E0782843E0703000FEF754FF21
:1041C0000028F5D10122E3789343E370E3780332CA
:1041D0009343E370ECE7C046400700207F22CB0901
:1041E0000A40044952008918C9183031C878C007FC
:1041F000C00F70474007002070B50A4E0500300020
:1042000008220C00FEF7A4F900237F21F360227836
:10421000B36091425B412800D90100220023FFF7DF
:10422000B9FF70BD78060020F8B5CE4647469146E6
:104230002A4E80B50822070030000D009846FEF790
:1042400087F94B46B3600023F381EC79A979240206
:104250000C43231C444500D943469AB29046B3818F
:10426000002C13D0002A1FD04B46002B34D0131C37
:10427000402A1FD89BB2984633787F2B20D8002144
:10428000174A43463800FFF785FF09E07F222B7865
:1042900038009A42644100230022E101FFF77AFFCF
:1042A000C0BCB946B046F8BD33787F2B11D9802108
:1042B0000022E6E740239BB2984633787F2BDED975
:1042C000074C424649462000FEF742F98021220071
:1042D000D7E700210022D4E70020E1E7780600209C
:1042E0000007002010B5142200210248FEF72AF929
:1042F00010BDC04678060020014B18617047C046CB
:104300007806002010B5054C010008222000FEF7B9
:104310001FF90023A360E36010BDC04678060020AB
:10432000F8B53B4C1D0023780600DA09C9098A421A
:1043300013D00020002D00D0F8BD364B002B03D049
:1043400021003000FEF7ACFD2369002B44D0220091
:104350000221300098470120EEE77F2B06D8A068A5
:10436000002837D02A002C49FEF7F2F8A368E2892A
:1043700059195219E38892B2E281A160934214D094
:104380003F2D12D9A589A81A071C80B240282FD822
:104390002378BFB27F2B2DD80021AA4235D01E4AE8
:1043A0003B003000FFF7F6FEC6E72369002B05D07F
:1043B000220001213000984700280FD07F220021E1
:1043C000237830009A42494100230022C901FFF7B7
:1043D000E1FEB1E70020AFE70120ADE700213000AA
:1043E000FEF754FE30008021FEF750FE0120A3E7C7
:1043F0004027CDE7AA4207D0074C3A002000FEF73D
:10440000A7F880212200CBE780210022C8E7C04620
:1044100078060020A12E0010000700202C23434323
:104420000B4810B5C0184478FFF74EF8002801D1AA
:10443000002010BDFFF750F80028F9D1002CF7D06C
:1044400021000020FFF7CAFE01235840C0B2F0E768
:10445000CC060020F0B54746CE4680B583B06E4608
:104460000F00190000233270050006227370002926
:104470002FD0B01CFEF76CF82C246C43174BA146D0
:104480009846C1444B4600205978FFF751FE00285A
:104490000FD0002F12D108344444230006CE06C3A7
:1044A00008232C2045434544220000206978FFF76B
:1044B00071FE03B0C0BCB946B046F0BD4B460834EF
:1044C00044441F7208223100601CFEF741F80923A2
:1044D000E7E70021B01CFEF735F8CDE7CC06002059
:1044E00010B52C2200210248FEF72CF810BDC04662
:1044F000CC06002010B52C2200210248FEF722F83D
:1045000010BDC046CC060020F0B54B7906000D006A
:1045100083B0032B0AD10879C400241A1234A4B240
:10452000944203D81A4F7B78002B03D0002420003C
:1045300003B0F0BD09786918B9624B78212BF5D129
:104540000B780200C9187B1C0193BB1C0093300040
:104550000323FFF7ADFD0028E8D0AB79012B13D082
:1045600001233B71AB7802223B70BB6AB81DD91D99
:10457000FDF7EEFFB9780029D9D03A0010233000BA
:104580001832FFF707FED2E7EB79FB70E8E7C04689
:10459000CC0600201F23F0B514001278050083B06C
:1045A0001340012B17D1604E20793378984212D1F5
:1045B000602318001040134208D020280BD16378E4
:1045C0000B2B08D8594A9B00D3589F46002908D185
:1045D0006378062B07D0002003B0F0BD721D0029C0
:1045E00044D00120F8E7E378212B6ED0222BF2D1C2
:1045F0000020FBF7B1FF21000200F3882800FFF73D
:1046000013FE0120E8E7002917D00229E9D1A1789B
:10461000474B3171002BE4D0002000E000BF0120A7
:10462000DAE70029DDD1E178424B7171002B04D02B
:10463000002000E000BF0028CDD021002800FFF7B7
:10464000DBFD0120C8E7002949D1E379A2791B02EB
:104650001343102BBFD83200210028001832FFF777
:10466000E3FD0120B8E70029BBD1321D0123210061
:104670002800FFF7D9FD0120AEE70029B1D1E37989
:10468000A0791B020343E278A178181C102B00D9F3
:10469000102080B2002943D0012B41D933000127DB
:1046A0000138317280B2093300900020FBF74CFFD3
:1046B000381883B2002B00D18DE73200210028008A
:1046C0000832FFF7B1FD012086E7B26A002A00D167
:1046D00081E7210028001378FFF7A6FD7CE7022977
:1046E00000D07EE7E079A37900021843E278A17850
:1046F000041C102800D910243300A4B21833002958
:1047000008D0012806D9307E884203D13300013C0D
:10471000A4B2193300200094FBF718FF01205BE7D7
:10472000330000270833BFE7CC0600206C4D001093
:10473000000000000000000070B5164C0500A278D3
:1047400082B08A420FD16178914211D1124A01257B
:10475000002A05D021000020DAB2083100E000BFB5
:10476000280002B070BD627800258A42F8D1EDE7DA
:1047700026009BB21836002200210020009333004F
:10478000FBF7E4FE280010233200A178FFF702FDBA
:104790000500E5E7CC0600200000000010B5002071
:1047A000FEF7A8FE10BDC04610B5FEF79DFE10BD79
:1047B000072210B544790379224012021A43C378C4
:1047C0009B079B0F022B05D0032B15D00020012B3C
:1047D00008D010BD02291CD0002040239342404144
:1047E000C0B2F6E702394B4259410D4B9C46614439
:1047F00091424041C0B2ECE702394B425941F023AB
:10480000002049429B001940403191424041C0B2D2
:10481000DFE7044B9C46624453425A41D0B2D8E78A
:10482000FF03000000FEFFFFF0B5002A11D00024B6
:104830007F274D78052D06D13D008E7835406D00DF
:10484000F6094519AB550D786419A4B24919A2426D
:10485000EFD8F0BD70B5040080690E00002803D0C9
:104860000121494200F010F9E189228A88B28D1AAB
:1048700093B2ADB2914202D26289AD1AADB2A288B2
:10488000AA4207D2904225D261895118411A89B2B1
:1048900015002182002D02D122E09B1A9BB29A4280
:1048A000FBD9E288216853433000C918FDF750FE58
:1048B000228A0125531C9BB29A4214D90023628993
:1048C0009B189BB2A0692382002801D000F0BCF89D
:1048D000280070BD811AA58989B28D42D8D2D3E74C
:1048E0000025238A9BB2A2899A42EBD2E7E7C04611
:1048F000F8B5040040690E00002803D001214942A8
:1049000000F0C2F8E289218A95B2531A9BB2914213
:1049100002D962899B1A9BB2A2889A4221D02B00AD
:10492000954203D39B1A9BB29A42FBD9E288216835
:104930005343C8183100FDF70BFE6B1C9BB29D4220
:104940000BD962899B189BB260690127E38100281B
:1049500001D000F079F83800F8BDA2899A42F3D26C
:10496000EFE7277A002FDAD1F5E7C04610B504004B
:104970004069002803D00121494200F085F8A06970
:10498000002803D00121494200F07EF80023E38192
:104990002382A38860695B009BB25A1E5B42A2819E
:1049A0006381002801D000F04FF8A069002801D0F1
:1049B00000F04AF8012010BD10B51920FCF70EFFD9
:1049C000D0238022E1211B0692045A620448054B41
:1049D0000022186049020123FDF790FF10BDC04678
:1049E00000400340200D002010B583070AD00300CB
:1049F000032102E001330B4205D01A78002AF9D1D5
:104A0000181A10BD030019680C4A0D4C8A188A4305
:104A100022420FD15968094A04338A188A43224234
:104A200008D15968054A04338A188A432242F1D0D2
:104A300000E001331A78002AFBD1E1E7FFFEFEFE19
:104A400080808080F8B5C04601B40248844601BC2D
:104A5000604700BFED01002001B40248844601BC5C
:104A6000604700BF1502002001B40248844601BC23
:104A7000604700BF1502002001B40248844601BC13
:104A8000604700BF0901002001B40248844601BC10
:104A9000604700BF4D01002001B40248844601BCBC
:084AA000604700BFC1000020C7
:104AA8001B1C1D00B44A001004FF000021622311E2
:104AB800001442A46B7A72746E000000336B5F6B53
:104AC8006579706164000000313233343536000096
:104AD8000904000009022200010100A032090400B3
:104AE8000001030000000921110100012243000711
:104AF80005810310000500001201000200000040BB
:104B0800FECA044000010102030100000501090674
:104B1800A1018501050719E029E715002501950878
:104B2800750181029501750881010508190129059A
:104B38009505750191029501750391010507190005
:104B48002AFF00150026FF00950675088100C000A1
:104B58004E6F207370696E6C6F636B732061726542
:104B680020617661696C61626C65000048617264FD
:104B78007761726520616C61726D20256420616CBB
:104B8800726561647920636C61696D656400000019
:104B98000A2A2A2A2050414E4943202A2A2A0A0052
:104BA8000A000000486172642061737365727400C2
:104BB80052656C6561736500626F6F74325F77323E
:104BC8003571303830000000312E342E30000000AE
:104BD8007069636F000000004A756C20313820321C
:104BE8003032320006005250BBFF3CB6D84B0010A2
:104BF80006005250E182887FC04B001006005250D8
:104C0800D3F07542B84B00100D0A000055415254BC
:104C180020737464696E00005541525420737464A3
:104C28006F7574005541525420737464696E202F57
:104C3800207374646F7574000600525053B4F4A165
:104C48002C4C001008005250920000004E6F20704B
:104C5800726F6772616D2073706163650000000098
:104C6800556E68616E646C656420495251203078D5
:104C780025780A00657020256420257320776173E4
:104C880020616C726561647920617661696C61622A
:104C98006C65000043616E277420636F6E74696EE3
:104CA80075652078666572206F6E20696E61637421
:104CB8006976652065702025642025730000000052
:104CC800EC350010EE370010803700103237001036
:104CD80014370010FC3600108C3600103A360010DD
:104CE8002E360010D03A0010BC3A0010EA360010F8
:104CF800243B0010EA3600100C3B0010F83A001074
:104D0800EA360010E43A0010923A0010EA36001031
:104D1800103E0010343B0010043E0010EA3600102C
:104D2800EA360010E63D0010343B0010EA36001069
:104D3800EA360010EA360010EA360010EA360010AB
:104D4800EA360010EA360010223E0010E144001056
:104D5800F54400100945001095450010394700102A
:104D680000000000D64500107A460010DC4500100F
:104D780066460010D6450010D6450010D6450010EE
:104D8800D6450010D64500104646001022460010B1
:104D9800064600104C45440009005250000000022D
:0C4DA8009C4D001008005250120000004A
:104DB400B4020010A80200109C020010EC4B00107A
:104DC40090020010F84B0010044C0010A04D00108D
:0C4DD400AC4D0010404C00104C4C001086
:104DE000D02330B500251B0600245D5706E003687C
:104DF000BFF35F8F1C6081F3108820BF0268EFF360
:104E0000108172B61368002BFCD0BFF35F8F03795B
:104E10007F2BECD905710368BFF35F8F00221A6006
:104E200081F3108830BDC04603000068EFF3108C9A
:104E300072B60268002AFCD0BFF35F8F04229A5634
:104E4000002A0BDB00290FD000200A601B68BFF38B
:104E50005F8F00221A608CF310887047D0221206F0
:104E6000126801201A71F1E70020EFE7F0B5C6469D
:104E700000B582B00C00070000F066F8FA220023AB
:104E80000090019120009200002100F065F8009A46
:104E9000019B14001D0024184D41AB422FD82BD08C
:104EA000D0231B061B68002698460BE03B68BFF327
:104EB0005F8F1E6081F310882000290000F03CF80D
:104EC000002820D13A68EFF3108172B61368002BE6
:104ED000FCD0BFF35F8F3B797F2BE7D943463B7113
:104EE0003B68BFF35F8F00221A6081F310880120B6
:104EF00002B080BCB846F0BD009BA342D0D90124CB
:104F00006442E517CCE70020F2E7C0460268EFF301
:104F1000108172B61368002BFCD0BFF35F8FFF23A4
:104F200003710368BFF35F8F00221A6081F310885A
:104F300040BF70477047C04601B40248844601BC78
:104F4000604700BFF50C001001B40248844601BC64
:104F5000604700BF990E001001B40248844601BCAE
:104F6000604700BFCD230010D84A0010BC4A001093
:104F7000C44A0010D04A0010100000007402002043
:104F80000000000058030020A008002000000000DE
:104F900000000000B0080020000000000000000039
:104FA00010000000000000000000010000000000F0
:104FB00000000000000002000000000000000000EF
:104FC0000000030000000000000000000000FF00DF
:104FD0000000000000B5486801318E460047704669
:104FE00009380149884700BDA516001000000000DF
:104FF000503300004C3300005433000052330000A3
:105000004D5300004D430000533400004334000072
:1050100031280010000000007D2800100000000072
:10502000000100003C4C00101C4C00109C070020AC
:1050300010000C000000E0FF1F0000000000000056
:105040000000000000000000000000000000000060
:105050000000000000000000000000000000000050
:1050600035250010191E00100D230010A524001076
:0450700039030010F0
:04000005100001E9FD
:00000001FF
